:020000043418AE
:10040000F8FF1F34597D1834A511183459091834D0
:10041000A5111834A5111834A5111834A5111834D4
:10042000000000000000000000000000A5111834CA
:10043000A5111834000000009B081834057E1834FC
:10044000A511183400000000A5111834A5111834A6
:10045000A5111834A5111834A5111834A511183494
:10046000A511183400000000A5111834A511183486
:10047000A5111834A5111834A51118340000000076
:10048000A511183400000000A5111834A511183466
:10049000A5111834A5111834A5111834A511183454
:1004A000A5111834A5111834A5111834A511183444
:1004B000A5111834A5111834A5111834A511183434
:1004C000A5111834A5111834A5111834A511183424
:1004D000A5111834A5111834A5111834A511183414
:1004E000A511183400000000A5111834A511183406
:1004F000A5111834A5111834A5111834A5111834F4
:10050000A5111834000000000000000000000000E9
:10051000A5111834A5111834A5111834A5111834D3
:10052000A5111834A5111834A5111834A5111834C3
:10053000A5111834A5111834A5111834A5111834B3
:10054000A5111834A5111834A5111834A5111834A3
:1007400000000000A5111834A511183400F002F8BB
:1007500000F07BF814A696E8000CB244B344DA45E6
:1007600001D100F072F8BAE80F000FA696E8300049
:10077000A5EB040504EB0607AAEB0704A7F10107A4
:100780004FEA15154FEA3414A4F10104AC4201D329
:1007900000F05BF813F0010F18BFFB1A43F00103E0
:1007A00000F001F8DBE71847D82E0100F82E010011
:1007B0000A444FF0000C10F8013B13F0070408BF87
:1007C00010F8014B1D1108BF10F8015B641E05D025
:1007D00010F8016B641E01F8016BF9D113F0080FDA
:1007E0001EBF10F8014BAD1C0C1B09D16D1E58BF6C
:1007F00001F801CBFAD505E014F8016B01F8016BA3
:100800006D1EF9D59142D6D37047000070470000A5
:100810000023002400250026103A28BF78C1FBD809
:10082000520728BF30C148BF0B6070471FB510F09A
:100830006DFB00F0D1FA04000020002110F050FB05
:10084000401C60601FBD10B510BDDFF810D0FFF771
:10085000EDFF00F051FB00F046FB0000F8FF1F34F5
:1008600003B4FFF7F0FF03BC08F062FFEFF3108062
:1008700072B6704780F310887047464A1368012BA0
:1008800004D04FF001031360434A1060434A1160E3
:1008900043484FF0805101607047EFF3108272B609
:1008A0003C48016851B34FF0000101603A480168CB
:1008B00091B1EFF309811EF0100F08BF21ED108BED
:1008C00021E9F00F4FF000041EF0100F08BF0124C3
:1008D00041F8044D0068016030490968096808C999
:1008E000B1E8F00F002B18BFB1EC108B81F3098831
:1008F0004EF0100E002B18BF2EF0100E82F3108851
:100900004EF0040E704725490860EFF3148222F080
:10091000040282F3148820494FF0000008601D494A
:100920004FF0010008601F481F49D0F8002041EA3D
:10093000020101601A484FF0805101601B480068B5
:10094000006800BF80F3088861B662B6BFF34F8FBE
:10095000BFF36F8F704700BFEFF308801EF0040FE6
:1009600001D0EFF3098020E9F00F40F804ED40F8E2
:1009700004ED1EF0040F02D080F3098801E080F33B
:10098000088800B50CF046FC5DF804EB4EF0040E50
:100990007047000064081C349C061C34A8061C34F4
:1009A00004ED00E020ED00E00000FFFF08ED00E0B6
:1009B0007047000010B500F00FFA001D10BD00BF19
:1009C0002105010053EA020C00F069802DE9F04B8B
:1009D0004FF00006002B1FBFB3FA83F503FA05F4AE
:1009E00024FA05F65E4012BF1643B2FA82F502FA07
:1009F00005F4C5F120051EBF22FA05FC44EA0C04EB
:100A0000203556EA044C4FEA144418BF641C4FF0DA
:100A100000084FF00009904271EB030C39D3002914
:100A200019BFB1FA81F701FA07F6B0FA80F700FAB8
:100A300007F6C7F120071EBF20FA07FC46EA0C069E
:100A40002037B6FBF4FCA7EB0507103F07F01F0BA0
:100A5000CBF120062CFA06F60CFA0BFB44BFB3468A
:100A60000026202FA4BF5E464FF0000B5BEA060C69
:100A700008BF4FF0010B19EB0B0948EB0608ABFB65
:100A8000027C06FB02CC0BFB03CCC01B71EB0C0100
:100A9000C1E70B46024641464846BDE8F08B13B518
:100AA000084318BF4FF0FF300146AFF30080BDE8A8
:100AB0001C4070472DE9F05F93460F468046044680
:100AC000002600F08DF9D0F80090824614F8015B02
:100AD0002DB1FFF76FFF0068405DC007F6D12B2DE9
:100AE00002D02D2D1AD0641E0021CAF800105A46DB
:100AF0003946204600F078F9014627B13868A0420F
:100B000001D1C7F80080DAF80000022809D0CAF83D
:100B10000090700505D54842BDE8F09F46F4806618
:100B2000E2E70846F8E7401ECAB210F8011F8A4201
:100B300002D00029F9D10020704740EA010310B526
:100B40009B070FD1042A0DD310C808C9121F9C425D
:100B5000F8D020BA19BA884201D9012010BD4FF04F
:100B6000FF3010BD1AB1D30703D0521C07E000209C
:100B700010BD10F8013B11F8014B1B1B07D110F8F9
:100B8000013B11F8014B1B1B01D1921EF1D11846FC
:100B900010BD40EA0103024630B59B0710D14FF06B
:100BA000013400E008C208C91D1B9D4315EAC41F9B
:100BB000F8D013F0FF0102F8011B0DD01B0AF8E773
:100BC00011F8013B002B02F8013B05D011F8013B65
:100BD000002B02F8013BF3D130BD10B5431C02E0FD
:100BE00010F8011B71B18107FAD14FF0013202C830
:100BF0008C1A8C4314EAC211F9D0C01A0A0603D029
:100C0000C01E10BDC01A10BD0A0401D0801E10BD48
:100C10000902FCD0401E10BD40EA010370B59B07DD
:100C20002ED14FF00136042A2AD308C810C99D1BC3
:100C30009D43121F15EAC61517D0D8B2E1B2401A6B
:100C400050EA056110D198B2A1B2401A50EA0541AC
:100C50000AD123F07F4024F07F41401A50EA052159
:100C600002D1180EA0EB146070BDA342DBD018BAFD
:100C700021BA884201D9012070BD4FF0FF3070BD0C
:100C80000AB9002070BD10F8013B11F8014B63B1A7
:100C9000A3420AD1521E08D010F8013B11F8014BB3
:100CA0001BB1A34201D1521EEDD1181B70BD4FF0F4
:100CB000000200B5134694469646203922BFA0E8AC
:100CC0000C50A0E80C50B1F12001BFF4F7AF0907B8
:100CD00028BFA0E80C5048BF0CC05DF804EB8900A9
:100CE00028BF40F8042B08BF704748BF20F8022BEC
:100CF00011F0804F18BF00F8012B704710B5044663
:100D000010F0030F08BF11F0030F40F015804FF0F3
:100D1000013E121FC0F20E8051F8043BA3EB0E0CF3
:100D20002CEA030C1CEACE1C08BF40F8043BF0D0B0
:100D3000A1F1040102F10402521E08DB11F8013B8B
:100D400000F8013B002BF7D1114600F09CF820463B
:100D500010BD00000000000030B44FF0013C50F81E
:100D6000042B51F8043BCCFA52F4D51A20D1FCB92B
:100D700050F8042B51F8043BCCFA52F4D51A17D191
:100D8000B4B950F8042B51F8043BCCFA52F4D51AFC
:100D90000ED16CB950F8042B51F8043BCCFA52F444
:100DA000D51A05D1002CDAD030BC4FF000007047C6
:100DB00029BAB1FA81F111F01801D1F12000844073
:100DC000F2D1CA40CB4012F0FF0213F0FF0330BC57
:100DD000D01A7047704700000048704750021C341A
:100DE0000048704730021C342DE9F05F82461546FA
:100DF0008B4600270AF10104B9460078302801D05B
:100E00009DB113E014F8010B0127782803D058286E
:100E100001D045B10AE00DB1102D07D1002714F81B
:100E2000010B102502E0082500E00A250026B04647
:100E30000EE005FB080005FB06F101271FFA80F80C
:100E400001EB1046B6F5803F00D3B94614F8010B0C
:100E5000294600F03AF80028EBDABBF1000F05D084
:100E60000FB1641E00E05446CBF80040B9F1000F0A
:100E700006D0FFF7B5FF02210160C81EBDE8F09F54
:100E800048EA0640FAE74FF000020429C0F0128059
:100E900010F0030C3FF40DAFCCF1040CBCF1020FC9
:100EA00018BF00F8012BA8BF20F8022BA1EB0C0102
:100EB000FFF7FFBE5FEAC17C24BF00F8012B00F8FA
:100EC000012B48BF00F8012B70473A2800D2303878
:100ED00020F02002412A01D3A2F13700884201D339
:100EE0004FF0FF30704710B50446AFF30080204646
:100EF000BDE81040FFF7B4BC80B50FF047FE0020FE
:100F000080BD000080B584B08DF80F0002910020F4
:100F10000190029820B9FFE76FF00100019032E0E4
:100F20009DF80F2040F20800C3F21C4050F8220048
:100F3000942102FB01F340F2A032C3F21C42D050D4
:100F40009DF80F0010FB012007F020FC0198C8B9A4
:100F5000FFE79DF80F0098B9FFE79DF80F0040F2FA
:100F6000A032C3F21C42942110FB0120029903F02D
:100F700031F920B1FFE76FF003000190FFE700E0D7
:100F8000FFE7FFE7FFE7019804B080BD80B588B0B8
:100F90008DF81F00002006909DF81F0020B9FFE784
:100FA000402002F0D3FA0DE09DF81F00012804D183
:100FB000FFE7402002F0CAFA03E0402002F0C6FA40
:100FC000FFE7FFE79DF81F1040F21000C3F21C403E
:100FD00030F81100019001200290002003900320BE
:100FE00004909DF81F1040F21800C3F21C4050F806
:100FF000210001A900F01CF99DF81F0000F004F881
:10100000069808B080BD000080B582B08DF807005A
:101010009DF8072040F21800C3F21C4050F822004F
:1010200040F21001C3F21C4131F81210012200F00D
:101030001DFB002002B080BD80B582B08DF8070096
:101040009DF8072040F21800C3F21C4050F822001F
:1010500040F21001C3F21C4131F8121000F0F2FA14
:10106000002002B080BD000081B08DF8030001B007
:101070007047000080B58CB08DF82F008DF82E10D1
:10108000002001900A900F2004900D20C1F2006012
:10109000039040F62C70C3F21940006802900420BF
:1010A00002F054FA01989DF82F2040F20201C3F299
:1010B0001C4131F8121005910221079108909DF80A
:1010C0002E0070B9FFE7002006909DF82F1040F227
:1010D0000400C3F21C4050F8210005A900F0A8F854
:1010E000FFE79DF82E00012852D1FFE74FF40410CE
:1010F00006909DF82F1040F20400C3F21C4050F8F7
:10110000210005A900F094F89DF82F2002EB420180
:1011100040F2C840C3F21C4000EB810003A951F823
:10112000221000F041F870BBFFE79DF82F2002EB82
:10113000420140F2C840C3F21C4000EB810002A90A
:1011400051F82220002100F045F8B8B9FFE79DF8DA
:101150002F2040F20000C3F21C40009030F9120032
:1011600004A951F82210002200F0ECFA00989DF832
:101170002F1030F9110000F0DBFA03E06FF00300EC
:101180000A90FFE703E06FF003000A90FFE7FFE734
:101190000A980CB080BD000080B50020FFF764FF06
:1011A00080BD0000FFE7FEE783B001900091019849
:1011B00020B9FFE701208DF80B0006E000980199A7
:1011C000086000208DF80B00FFE79DF80B0003B0CE
:1011D0007047000085B004908DF80F100292002037
:1011E0008DF807009DF80F000146009140B1FFE720
:1011F000009801280BD0FFE7009802280BD00EE0E2
:101200000298049948600298049988600BE002985B
:101210000499486007E002980499886003E001207F
:101220008DF80700FFE79DF8070005B07047000044
:1012300090B00F900E9100200D90FFE70E9800687F
:101240000D99C840002800F0FA81FFE70E98006869
:101250000D9A0121914008400C900C98002800F054
:10126000EA81FFE70E98406800F00300012807D0EC
:10127000FFE70E98406800F0030002282FD1FFE737
:101280000F9880680B900D984100032000FA01F13F
:101290000B9888430B900E98C0680D99490000FA8E
:1012A00001F10B9808430B900B980F9988600F98E9
:1012B00040680B900D99012000FA01F10B988843CA
:1012C0000B900E984068C0F300100D9900FA01F1E0
:1012D0000B9808430B900B980F994860FFE70E9806
:1012E000406800F0030003280CD1FFE70E98406827
:1012F00000F0030003281DD1FFE70E988068012845
:1013000018D0FFE70F98C0680B900D98410003209C
:1013100000FA01F10B9888430B900E9880680D99A4
:10132000490000FA01F10B9808430B900B980F99B4
:10133000C860FFE70E98406800F00300022826D13D
:10134000FFE70F980D996FF0030202EA510108447C
:10135000006A0B900D9800F0070081000F2000FA42
:1013600001F10B9888430B900E9800690D9901F0DC
:101370000701890000FA01F10B9808430B900B98C4
:101380000F990D9B02EA530211440862FFE70F9880
:1013900000680B900D984100032000FA01F10B98B2
:1013A00088430B900E98406800F003000D994900A7
:1013B00000FA01F10B9808430B900B980F99086005
:1013C0000E9880798007002800F03481FFE70D989F
:1013D00020F0030045F26001C5F2026140580B9015
:1013E0000D9800F00300C1000F2000FA01F10B98E6
:1013F00088430B900F980021C5F20261884203D107
:10140000FFE700200A9096E00F9840F20041C5F2F5
:101410000261884203D1FFE70120099088E00F981C
:1014200040F60001C5F20261884203D1FFE70220C5
:1014300008907AE00F9840F60041C5F202618842B8
:1014400003D1FFE7032007906CE00F9841F2000101
:10145000C5F20261884203D1FFE7042006905EE0F6
:101460000F9841F20041C5F20261884203D1FFE7C3
:101470000520059050E00F9841F60001C5F2026189
:10148000884203D1FFE70620049042E00F9841F61E
:101490000041C5F20261884203D1FFE707200390B3
:1014A00034E00F9843F20041C5F20261884203D153
:1014B000FFE70820029026E00F9843F60001C5F2EE
:1014C0000261884203D1FFE70920019018E00F98DC
:1014D00043F60041C5F20261884203D1FFE70A20CA
:1014E00000900AE00F9944F20002C5F20262102057
:1014F000914208BF0B200090FFE700980190FFE7A2
:1015000001980290FFE702980390FFE70398049088
:10151000FFE704980590FFE705980690FFE7069817
:101520000790FFE707980890FFE708980990FFE702
:1015300009980A90FFE70A980D9901F00301C90084
:1015400000FA01F10B9808430B900B980D9921F0CC
:10155000030145F26002C5F20262885045F2800044
:10156000C5F2026000680B900C990B9888430B90B1
:101570000E988079C00728B1FFE70C990B980843B3
:101580000B90FFE70B9845F28001C5F202610860FD
:1015900045F28400C5F2026000680B900C990B982C
:1015A00088430B900E9880798007002805D5FFE7C7
:1015B0000C990B9808430B90FFE70B9845F28401B8
:1015C000C5F20261086045F20000C5F202600068E1
:1015D0000B900C990B9888430B900E988079C0065D
:1015E000002805D5FFE70C990B9808430B90FFE7FF
:1015F0000B9845F20001C5F20261086045F2040053
:10160000C5F2026000680B900C990B9888430B9010
:101610000E9880798006002805D5FFE70C990B9875
:1016200008430B90FFE70B9845F20401C5F20261F5
:101630000860FFE7FFE70D9801300D90FEE510B060
:101640007047000083B00290ADF806100298406920
:101650000090009ABDF8060002EA0001904340EABB
:1016600001400299886103B07047000082B0019088
:10167000ADF802108DF801209DF8010028B1FFE7B8
:10168000BDF802000199886104E0BDF802000199EB
:101690008862FFE702B0704780B54EF21000CEF2CC
:1016A00000000068C003002803D5FFE700F008F839
:1016B000FFE740F68000C3F21C40006880BD0000D8
:1016C00040F23810C3F21C40026840F68001C3F2B9
:1016D0001C410868104408607047000080B582B063
:1016E000032000F049F806F03BFC0F2000F010F852
:1016F00020B1FFE701208DF8070005E000F010F8A9
:1017000000208DF80700FFE79DF8070002B080BDBC
:1017100080B582B001900BF085FE002002B080BD44
:1017200080B500F061F800F069F800F071F880BD54
:1017300080B582B0ADF80600BDF9060007F030FBB9
:1017400002B080BD80B586B0ADF81600049103925A
:1017500007F03EFB00F007000290BDF91600019073
:1017600002980499039A02F063FD0146019807F07C
:1017700059FB06B080BD000080B582B00190019891
:1017800007F072FB02B080BD80B584B0029044F6D1
:101790000001C5F20261086820F00400029A1043BB
:1017A0000860FFF779FF0190FFE744F62000C5F2DB
:1017B00002600068800300280DD4FFE7FFF76CFF8C
:1017C0000199401AB0F57A7F04D9FFE701208DF81E
:1017D0000F0004E0E9E700208DF80F00FFE79DF817
:1017E0000F0004B080BD000044F63C01C5F2026168
:1017F000086840F4807008607047000044F63C01BF
:10180000C5F20261086840F400700860704700008B
:1018100044F63401C5F20261086840F48070086043
:101820007047000010B58AB00020099002F042FB1A
:10183000A0B3FFE702F0EEFA78B3FFE702F01AFB7D
:1018400004F0A2FB0790079830B3FFE702F0F2FA2A
:1018500008900898F8B1FFE7079806900898039059
:1018600002F0F0FA049002F0DDFA059002F0F2FACC
:10187000029002F0F7FADDF808C00399049A059B7C
:1018800004460698EE46CEF80440CEF800C002F0BA
:1018900005FD0990FFE7FFE7FFE70BE002F0FAFA2A
:1018A00030B1FFE702F0E6FA04F06EFB099000E0C9
:1018B000FFE7FFE709980AB010BD000010B58AB035
:1018C0000020099002F056FBA0B3FFE702F002FBF4
:1018D00078B3FFE702F02EFB04F056FB0790079861
:1018E00030B3FFE702F006FB08900898F8B1FFE775
:1018F000079806900898039002F004FB049002F009
:10190000F1FA059002F006FB029002F00BFBDDF805
:1019100008C00399049A059B04460698EE46CEF843
:101920000440CEF800C002F0B9FC0990FFE7FFE7E1
:10193000FFE70BE002F00EFB30B1FFE702F0FAFA2E
:1019400004F022FB099000E0FFE7FFE709980AB0E6
:1019500010BD000010B58AB00020099002F06AFBAB
:10196000A0B3FFE702F016FB78B3FFE702F042FBFB
:1019700004F00AFB0790079830B3FFE702F01AFB68
:1019800008900898F8B1FFE7079806900898039028
:1019900002F018FB049002F005FB059002F01AFB20
:1019A000029002F01FFBDDF808C00399049A059B22
:1019B00004460698EE46CEF80440CEF800C002F089
:1019C0006DFC0990FFE7FFE7FFE70BE002F022FB69
:1019D00030B1FFE702F00EFB04F0D6FA099000E008
:1019E000FFE7FFE709980AB010BD000010B58AB004
:1019F0000020099002F07EFBA0B3FFE702F02AFB73
:101A000078B3FFE702F056FB04F0BEFA07900798A0
:101A100030B3FFE702F02EFB08900898F8B1FFE71B
:101A2000079806900898039002F02CFB049002F0AF
:101A300019FB059002F02EFB029002F033FBDDF85B
:101A400008C00399049A059B04460698EE46CEF812
:101A50000440CEF800C002F021FC0990FFE7FFE748
:101A6000FFE70BE002F036FB30B1FFE702F022FBAC
:101A700004F08AFA099000E0FFE7FFE709980AB04E
:101A800010BD000080B586B0059104900020039041
:101A9000049801900599029180F001000843002804
:101AA00000F0D581FFE70299019880F00200084319
:101AB000002800F0D181FFE70299019880F004002E
:101AC0000843002800F0D181FFE70299019880F0D7
:101AD00008000843002800F0C481FFE7029901983C
:101AE00080F010000843002800F0C481FFE702994D
:101AF000019880F020000843002800F0C181FFE732
:101B00000299019880F400700843002800F0BE811B
:101B1000FFE70299019880F480600843002800F0F4
:101B2000BA81FFE70299019880F400600843002819
:101B300000F0B681FFE70299019880F480500843D5
:101B4000002800F0B281FFE70299019880F400506C
:101B50000843002800F0B081FFE70299019880F463
:101B600080400843002800F0AF81FFE70299019808
:101B700080F400400843002800F0AE81FFE702999E
:101B8000019880F480300843002800F0AD81FFE721
:101B90000299019880F400300843002800F0AC81DD
:101BA000FFE70299019880F480200843002800F0A4
:101BB000AB81FFE70299019880F4002008430028D8
:101BC00000F0AA81FFE70299019880F48010084391
:101BD000002800F0A981FFE70299019880F4001025
:101BE0000843002800F0A881FFE70299019880F4DB
:101BF00080000843002800F0A781FFE702990198C0
:101C000080F400000843002800F0A681FFE7029955
:101C1000019880F080700843002800F0A381FFE75E
:101C20000299019880F000700843002800F0A0811C
:101C3000FFE70299019880F080600843002800F0D7
:101C40009D81FFE70299019880F000600843002819
:101C500000F09981FFE70299019880F080500843D5
:101C6000002800F09481FFE70299019880F000506D
:101C70000843002800F09381FFE70299019880F063
:101C800080400843002800F09281FFE70299019804
:101C900080F000400843002800F09081FFE70198A1
:101CA000029981F001010843002800F08F81FFE7CD
:101CB0000198029981F002010843002800F08B810D
:101CC000FFE70198029981F004010843002800F021
:101CD0008A81FFE70198029981F0080108430028F2
:101CE00000F08981FFE70198029981F01001084313
:101CF000002800F08881FFE70198029981F0200117
:101D00000843002800F08781FFE70198029981F0DD
:101D100040010843002800F08681FFE701980299FE
:101D200081F480710843002800F08581FFE7019865
:101D3000029981F400710843002800F08381FFE7D5
:101D40000198029981F480610843002800F08281A3
:101D5000FFE70198029981F400610843002800F030
:101D60008181FFE70198029981F48051084300289E
:101D700000F08081FFE70198029981F40051084347
:101D8000002800F07F81FFE70198029981F48041EB
:101D90000843002800F07E81FFE70198029981F452
:101DA00000410843002800F07D81FFE70198029977
:101DB00081F480310843002800F07C81FFE701981E
:101DC000029981F400310843002800F07A81FFE78E
:101DD0000198029981F480210843002800F079815C
:101DE000FFE70198029981F400210843002800F0E0
:101DF0007881FFE70198029981F480110843002857
:101E000000F07781FFE70198029981F400110843FF
:101E1000002800F07681FFE70198029981F48001A3
:101E20000843002800F07581FFE70198029981F4CA
:101E300000010843002800F07381FFE70198029930
:101E400081F080710843002800F0728178E17020F1
:101E500002F068FA039074E1072002F059FB039046
:101E60006FE102F0C7FD03906BE1072002F026FC52
:101E7000039066E14FF4401002F006FE039060E12B
:101E80004FF4405002F080FE03905AE1032002F02C
:101E9000F5FE039055E1032002F06AFF039050E144
:101EA000302002F0D7FF03904BE10C20C0F200700D
:101EB00003F08EF8039044E140F20C40C0F2007051
:101EC00003F086F803903CE140F60C00C0F200708D
:101ED00003F07EF8039034E140F60C40C0F200704D
:101EE00003F076F803902CE141F20C00C0F2007090
:101EF00003F0FAF9039024E141F20C40C0F20070C3
:101F000003F0F2F903901CE140F62C00C0F20070DF
:101F100003F00AFB039014E140F62C40C0F200707D
:101F200003F002FB03900CE141F22C00C0F20070C0
:101F300003F0FAFA039004E141F22C40C0F2007081
:101F400003F0F2FA0390FCE041F62C00C0F20070BE
:101F500003F0EAFA0390F4E04FF4E06003F072FC5F
:101F60000390EEE04FF0407003F056FD0390E8E080
:101F70004FF4E02003F0D0FD0390E2E0302004F0C5
:101F800055F80390DDE004F0CBF80390D9E041F27E
:101F90001840C0F2007004F00DF90390D1E041F652
:101FA0001800C0F2007004F005F90390C9E01C208D
:101FB000C0F2003004F050FA0390C2E040F21C403E
:101FC000C0F2003004F048FA0390BAE0072004F0B1
:101FD0001FFB0390B5E040F22040C0F2007004F017
:101FE000E5FB0390ADE040F62000C0F2007004F085
:101FF000DDFB0390A5E040F62040C0F2007004F045
:10200000D5FB03909DE041F22000C0F2007004F087
:10201000CDFB039095E041F22040C0F2007004F047
:10202000C5FB03908DE041F62000C0F2007004F083
:10203000BDFB039085E03020C0F2007005F054F83D
:1020400003907EE040F23040C0F2007005F04CF8A2
:10205000039076E040F63000C0F2007005F044F8DE
:1020600003906EE040F63040C0F2007004F03AFE9B
:10207000039066E041F23000C0F2007004F032FEDE
:1020800003905EE041F23040C0F2007005F02CF8A1
:10209000039056E041F63000C0F2007004F022FEDA
:1020A00003904EE041F63040C0F2007004F01AFE9A
:1020B000039046E03420C0F2007004F013FE039059
:1020C0003FE040F23440C0F2007005F00DF803909C
:1020D00037E041F21400C0F2001003F011FE03904B
:1020E0002FE040F61440C0F2003003F05DFE039094
:1020F00027E041F61400C0F2001003F001FE039047
:102100001FE041F21440C0F2003003F04DFE039096
:1021100017E01420C0F2003005F0E8F9039010E059
:1021200040F21440C0F2003005F0E0F9039008E0FE
:1021300040F61400C0F2003005F0D8F9039000E03A
:10214000FFE7039806B080BD80B584B00290029886
:1021500020B9FFE701208DF80F006CE202980078AB
:102160000007002819D5FFE70298006948F224010A
:10217000C5F20261096801F0070188420CD9FFE746
:1021800048F22401C5F20261086820F00700029AB3
:10219000126910430860FFE7FFE702980078C00665
:1021A000002819D5FFE70298406948F22401C5F2DA
:1021B0000261096801F0700188420CD9FFE748F21A
:1021C0002401C5F20261086820F07000029A526989
:1021D00010430860FFE7FFE70298007880060028B8
:1021E00019D5FFE70298806948F22401C5F202611F
:1021F000096801F4E04188420CD9FFE748F2240164
:10220000C5F20261086820F4E040029A9269104326
:102210000860FFE7FFE7029800784006002819D51C
:10222000FFE70298C06948F22401C5F2026109681B
:1022300001F4E02188420CD9FFE748F22401C5F2FD
:102240000261086820F4E020029AD2691043086015
:10225000FFE7FFE7029800784007002819D5FFE75D
:102260000298C06848F22401C5F20261096801F4CD
:10227000E00188420CD9FFE748F22401C5F202616F
:10228000086820F4E000029AD26810430860FFE773
:10229000FFE702980078C00700287AD0FFE702988D
:1022A0004068B0F5003F09D1FFE701F0DFFA20B93F
:1022B000FFE701208DF80F00BDE13DE00298406886
:1022C000B0F5403F1ED1FFE701F046FC0299096AD4
:1022D00005F084FA012804D0FFE701208DF80F00F3
:1022E000A9E10299086A4A6A0021CFF6FF7101EB61
:1022F0000241084348F2C401C5F20261086001F0DE
:1023000017FC18E002984068B0F5803F09D1FFE75C
:1023100001F05AFD20B9FFE701208DF80F008AE196
:1023200008E001F0DBFA20B9FFE701208DF80F008B
:1023300081E1FFE7FFE7FFE748F22001C5F2026114
:10234000086820F44030029A526810430860FFF792
:10235000A3F90190FFE701F091F902994968B0EB08
:10236000011F0ED0FFE7FFF797F90199401A41F2DC
:102370008931884204D3FFE703208DF80F005AE12A
:10238000E9E700F0D5F940F22401C3F21C410860EE
:10239000FFE7029800788007002840F1A780FFE758
:1023A00002988068B0F1007F09D1FFE701F05EFA82
:1023B00020B9FFE701208DF80F003CE170E00298A2
:1023C0008068B0F1407F53D1FFE701F0F5FB02993F
:1023D000896A05F003FA012804D0FFE701208DF88F
:1023E0000F0028E101F044FC0299096B05F0F6F9B1
:1023F000012804D0FFE701208DF80F001BE101F058
:10240000AFFA0299896B05F0E9F9012804D0FFE7DA
:1024100001208DF80F000EE10299886ACA6A002136
:10242000CFF6FF7101EB0242104348F2C802C5F239
:1024300002621060029A106B526B01EB0242104371
:1024400048F2D802C5F202621060029A906BD26B19
:1024500001EB0241084348F2EC01C5F20261086059
:1024600048F64021C5F2026140F22240086016E0C1
:102470000298806848B9FFE701F030FA20B9FFE719
:1024800001208DF80F00D6E008E001F09DFC20B996
:10249000FFE701208DF80F00CDE0FFE7FFE7FFE742
:1024A00048F22001C5F20261086820F04070029AEB
:1024B000926810430860FFF7EFF80190FFE701F022
:1024C0009DF902998968B0EB011F0ED0FFE7FFF775
:1024D000E3F80199401A41F28931884204D3FFE7B9
:1024E00003208DF80F00A6E0E9E7FFE702980078E7
:1024F0004007002819D5FFE70298C06848F2240178
:10250000C5F20261096801F4E00188420CD2FFE7DC
:1025100048F22401C5F20261086820F4E000029A42
:10252000D26810430860FFE7FFE7029800780007D1
:10253000002819D5FFE70298006948F22401C5F286
:102540000261096801F0070188420CD2FFE748F2F6
:102550002401C5F20261086820F00700029A12699E
:1025600010430860FFE7FFE702980078C0060028E4
:1025700019D5FFE70298406948F22401C5F20261CB
:10258000096801F0700188420CD2FFE748F224018B
:10259000C5F20261086820F07000029A5269104387
:1025A0000860FFE7FFE7029800788006002819D549
:1025B000FFE70298806948F22401C5F202610968C8
:1025C00001F4E04188420CD2FFE748F22401C5F251
:1025D0000261086820F4E040029A926910430860A2
:1025E000FFE7FFE7029800784006002819D5FFE7CB
:1025F0000298C06948F22401C5F20261096801F439
:10260000E02188420CD2FFE748F22401C5F20261C2
:10261000086820F4E020029AD26910430860FFE7BE
:10262000FFE740F22C20C3F21C400068FFF770F86F
:102630008DF80F00FFE79DF80F0004B080BD00008B
:1026400082B0019001997F20086048F22000C5F215
:10265000026000680090009800F4401000090199A1
:102660004860009800F0405000090199886048F2E5
:102670002400C5F2026000680090009800F4E000B9
:102680000199C860009800F007000199086100985E
:1026900000F0700001994861009800F4E040019951
:1026A0008861009800F4E0200199C86148F2C400F4
:1026B000C5F2026000680090009800F04050019957
:1026C00008629DF8020001300199486248F2C80092
:1026D000C5F2026000680090009800F04050019937
:1026E00088629DF8020001300199C86248F2D80062
:1026F000C5F2026000680090009800F04050019917
:1027000008639DF8020001300199486348F2EC002B
:10271000C5F2026000680090009800F040500199F6
:1027200088639DF8020001300199C86302B07047C8
:1027300080B584B00020039000F0A0FF0146019115
:1027400078B1FFE70198B0F5801F14D0FFE701983A
:10275000B0F5001F23D0FFE70198B0F5401F24D04B
:1027600061E001F0ABF8C10949F20000C0F2D030DD
:10277000C840039058E048F24400C5F20260006887
:1027800000F4007140F60010C0F23D00B1F5007F8A
:1027900004BF42F20040C0F2F400039044E043F270
:1027A0000060C0F26E1003903EE001F0C9F90290A3
:1027B00001F0D2F90146009178B1FFE70098B0F13D
:1027C000805F13D0FFE70098B0F1005F17D0FFE7FC
:1027D0000098B0F1405F1BD023E0FFF723F803908F
:1027E00003980299B0FBF1F003901BE0FFF766F845
:1027F000039003980299B0FBF1F0039012E0FFF709
:10280000A9F8039003980299B0FBF1F0039009E056
:10281000FFF7ECF8039003980299B0FBF1F00390F6
:1028200000E0FFE700E0FFE7039804B080BD000090
:1028300080B582B001F0C0F9019001F0B1F9014614
:10284000019804F04FFF02B080BD000080B5A2B037
:102850002090209828B9FFE701208DF8870000F02C
:1028600085BC00F00BFF1D9000F0C8FF1E9001F02A
:1028700009FB1C9001F066FB1B9001F0C3FB1A9052
:1028800001F020FC199048F20400C5F202600068D3
:10289000189020980078C007002800F0E080FFE73B
:1028A0001D98B0F5001F34D0FFE71E98B0F1005F0F
:1028B0002FD0FFE71C98B0F1005F07D1FFE7189811
:1028C00000F48070B0F5807F23D0FFE71B98B0F153
:1028D000005F07D1FFE7189800F40070B0F5007FA3
:1028E00017D0FFE71A98B0F1005F07D1FFE71898FB
:1028F00000F48060B0F5806F0BD0FFE71998B0F15D
:10290000005F10D1FFE79DF86100000700280AD59D
:10291000FFE72098406828B9FFE701208DF887007D
:1029200000F024BC9AE0FFE720984068102807D107
:10293000FFE748F60001C5F202611020086056E08A
:102940002098406878B9FFE749F20001C5F20261BA
:102950001020086048F25401C5F20261086820F4B2
:10296000C030086042E02098406848F21001884278
:1029700013D1FFE748F25401C5F20261086840F440
:1029800000400860086820F48030086048F60001C4
:10299000C5F202611020086027E02098406848F2E4
:1029A0001001C0F2010188420FD1FFE748F2540143
:1029B000C5F20261086840F4C030086048F60001C2
:1029C000C5F20261102008600EE049F20001C5F274
:1029D00002611020086048F25401C5F202610868E3
:1029E00020F4C0300860FFE7FFE7FFE7FFE7FFE7FD
:1029F000FEF752FE1F9020984068B8B1FFE7FFE74E
:102A000048F20400C5F202600068C00600280CD439
:102A1000FFE7FEF741FE1F99401A652804D3FFE740
:102A200003208DF88700A1E3EAE716E0FFE748F20C
:102A30000400C5F202600068C00600280CD5FFE75C
:102A4000FEF72AFE1F99401A652804D3FFE70320EA
:102A50008DF887008AE3EAE7FFE7FFE7FFE72098C2
:102A60000078800700287BD5FFE71D9850B3FFE76B
:102A70001E9838B3FFE71C9838B9FFE7189800F4A0
:102A80008070B0F5807F1DD0FFE71B9838B9FFE755
:102A9000189800F40070B0F5007F13D0FFE71A9883
:102AA00038B9FFE7189800F48060B0F5806F09D05E
:102AB000FFE71998C0B9FFE79DF8610000070028FB
:102AC00012D5FFE72098C06820B9FFE701208DF8F4
:102AD00087004BE32098006900F018FF20984069B8
:102AE00000F004FFFFE73AE02098C068F8B1FFE784
:102AF00000F0D4FEFEF7D0FD1F90FFE700F0EEFEE1
:102B000060B9FFE7FEF7C8FD1F99401A022804D3F9
:102B1000FFE703208DF8870028E3EFE7209800699E
:102B200000F0F4FE2098406900F0E0FE16E000F0AE
:102B3000ADFEFEF7B1FD1F90FFE700F0CFFE60B1E4
:102B4000FFE7FEF7A9FD1F99401A022804D3FFE70B
:102B500003208DF8870009E3EFE7FFE7FFE7FFE7D2
:102B600020980078C006002840F18480FFE71D9877
:102B7000B0F5801F34D0FFE71E98B0F1805F2FD0F2
:102B8000FFE71C98B0F1805F07D1FFE7189800F4C9
:102B90008070B0F5807F23D0FFE71B98B0F1805F95
:102BA00007D1FFE7189800F40070B0F5007F17D048
:102BB000FFE71A98B0F1805F07D1FFE7189800F49B
:102BC0008060B0F5806F0BD0FFE71998B0F1805F9F
:102BD00014D1FFE79DF86100000700280ED5FFE73C
:102BE0002098C06920B9FFE701208DF88700BDE279
:102BF0002098406A01F0F0F8FFE73AE02098C069B9
:102C0000F8B1FFE72098006A01F0F6F801F0C4F887
:102C1000FEF742FD1F90FFE701F0D6F860B9FFE72D
:102C2000FEF73AFD1F99401A022804D3FFE703205C
:102C30008DF887009AE2EFE72098406A01F0CCF81F
:102C400016E001F0A1F8FEF727FD1F90FFE701F065
:102C5000BBF860B1FFE7FEF71FFD1F99401A02287D
:102C600004D3FFE703208DF887007FE2EFE7FFE75B
:102C7000FFE7FFE7209800780007002833D5FFE73B
:102C800020988069B8B1FFE701F066F8FEF704FD0F
:102C90001F90FFE701F070F860B9FFE7FEF7FCFC5A
:102CA0001F99401A022804D3FFE703208DF88700FC
:102CB0005CE2EFE716E001F047F8FEF7EDFC1F904D
:102CC000FFE701F059F860B1FFE7FEF7E5FC1F9957
:102CD000401A022804D3FFE703208DF8870045E25D
:102CE000EFE7FFE7FFE7209800784007002840F172
:102CF000A580FFE7FFE720988068022807D1FFE75B
:102D000048F60001C5F202610220086062E02098E6
:102D1000806898B9FFE749F20001C5F2026102201C
:102D2000086048F24001C5F20261086820F4803072
:102D30000860086820F4004008604AE02098806835
:102D400048F20201884213D1FFE748F24001C5F280
:102D50000261086840F400400860086820F4803090
:102D6000086048F60001C5F20261022008602FE009
:102D70002098806848F20201C0F20101884213D114
:102D8000FFE748F24001C5F20261086840F40040E4
:102D90000860086840F48030086048F60001C5F219
:102DA00002610220086012E049F20001C5F20261EE
:102DB0000220086048F24001C5F20261086820F470
:102DC00000400860086820F480300860FFE7FFE7F3
:102DD000FFE7FFE7FFE720988068B8B1FFE7FEF75D
:102DE0005BFC1F90FFE700F0A7FF70B9FFE7FEF75D
:102DF00053FC1F99401A41F28931884204D3FFE7FE
:102E000003208DF88700B1E1EDE716E0FEF744FC02
:102E10001F90FFE700F090FF70B1FFE7FEF73CFC6A
:102E20001F99401A41F28931884204D3FFE70320F9
:102E30008DF887009AE1EDE7FFE7FFE72098806AC9
:102E400000285AD0FFE7209800F12801002004F064
:102E5000D3FE179001F036F816901798012837D155
:102E6000FFE700F079FE159000F0A6FE149000F048
:102E7000FFFE139000F074FD12901D98B0F5401FF6
:102E800007D1FFE7159820B9FFE701208DF88700EB
:102E90006CE11E98B0F1405F0DD1FFE7149830B19E
:102EA000FFE7139818B1FFE7129820B9FFE7012058
:102EB0008DF887005AE1209800F12801002004F0E5
:102EC0002BFD20B1FFE701208DF887004EE113E0D4
:102ED0002098806A02280DD1FFE7169850B9FFE7C5
:102EE000002004F055FE20B1FFE701208DF8870097
:102EF0003CE100E0FFE7FFE7FFE72098406C002897
:102F000062D0FFE7209800F14401012004F074FE34
:102F1000119001F037F81090119801283FD1FFE788
:102F200000F01AFE0F9000F047FE0E9000F0A0FE99
:102F30000D9000F015FD0C901D98B0F5401F09D1C3
:102F4000FFE70F98B0F1805F04D1FFE701208DF813
:102F500087000BE11E98B0F1405F13D1FFE70E9898
:102F6000B0F1805F0AD0FFE70D98B0F1805F05D027
:102F7000FFE70C98B0F1805F04D1FFE701208DF8E6
:102F80008700F3E0209800F14401012004F0C4FC24
:102F900020B1FFE701208DF88700E7E013E02098DB
:102FA000406C02280DD1FFE7109850B9FFE70120CF
:102FB00004F0EEFD20B1FFE701208DF88700D5E099
:102FC00000E0FFE7FFE7FFE72098006E002862D0EF
:102FD000FFE7209800F16001022004F00DFE0B9045
:102FE00000F070FF0A900B9801283FD1FFE700F036
:102FF000B3FD099000F0E0FD089000F039FE079065
:1030000000F0AEFC06901D98B0F5401F09D1FFE717
:103010000998B0F1005F04D1FFE701208DF8870027
:10302000A4E01E98B0F1405F13D1FFE70898B0F11B
:10303000005F0AD0FFE70798B0F1005F05D0FFE717
:103040000698B0F1005F04D1FFE701208DF88700FA
:103050008CE0209800F16001022004F05DFC20B1BA
:10306000FFE701208DF8870080E013E02098006ED4
:1030700002280DD1FFE70A9850B9FFE7022004F0BB
:1030800087FD20B1FFE701208DF887006EE000E0AA
:10309000FFE7FFE7FFE72098C06F002862D0FFE757
:1030A000209800F17C01032004F0A6FD059001F0BA
:1030B00029F80490059801283FD1FFE700F04CFD66
:1030C000039000F079FD029000F0D2FD019000F035
:1030D00047FC00901D98B0F5401F09D1FFE7039809
:1030E000B0F1405F04D1FFE701208DF887003DE09B
:1030F0001E98B0F1405F13D1FFE70298B0F1405F36
:103100000AD0FFE70198B0F1405F05D0FFE70098D3
:10311000B0F1405F04D1FFE701208DF8870025E082
:10312000209800F17C01032004F0F6FB20B1FFE7BA
:1031300001208DF8870019E013E02098C06F022865
:103140000DD1FFE7049850B9FFE7032004F020FDFC
:1031500020B1FFE701208DF8870007E000E0FFE7DE
:10316000FFE7FFE700208DF88700FFE79DF8870065
:1031700022B080BD80B582B00190019804F018FEA5
:1031800002B080BD80B582B00090009820B9FFE702
:1031900001208DF8070046E00098806908B1FFE73C
:1031A00000E0FFE70098D0F8880040B9FFE70099F9
:1031B000002081F88400009800F03AF8FFE70099B9
:1031C0002420C1F8880000980168086820F00100F8
:1031D00008600098806A20B1FFE7009805F03EF98A
:1031E000FFE7009805F036FB012804D1FFE7012036
:1031F0008DF8070017E000980168486820F49040B7
:10320000486000980168886820F02A00886000986B
:103210000168086840F001000860009805F0C2F9F4
:103220008DF80700FFE79DF8070002B080BD0000A1
:1032300081B0009001B0704780B58AB008900791C6
:10324000ADF81A2005930898D0F88C00202840F09B
:10325000C680FFE7079820B1FFE7BDF81A0020B944
:10326000FFE701208DF82700BDE008990020C1F894
:103270009000089A2221C2F88C100899C866FEF7BF
:103280000BFA0190BDF81A000899A1F85C00BDF88E
:103290001A000899A1F85E00FFE708988068B0F569
:1032A000805F10D1FFE70898006930B9FFE70899FF
:1032B00040F2FF10A1F8600004E00899FF20A1F897
:1032C0006000FFE72EE00898806878B9FFE708986B
:1032D000006928B9FFE70899FF20A1F8600004E021
:1032E00008997F20A1F86000FFE71AE0089880683D
:1032F000B0F1805F0FD1FFE70898006928B9FFE7B8
:1033000008997F20A1F8600004E008993F20A1F807
:103310006000FFE704E008990020A1F86000FFE7E3
:10332000FFE7FFE7FFE70898B0F86000ADF80A0094
:1033300008988068B0F5805F09D1FFE708980069B8
:1033400028B9FFE7002004900798039004E007984D
:10335000049000200390FFE7FFE70898B0F85E00B4
:10336000A8B3FFE70898019B05996A4611602021E0
:10337000002205F079FC40B1FFE708992020C1F850
:103380008C0003208DF827002DE0049860B9FFE73A
:1033900008980068406ABDF80A1008400399088040
:1033A0000398023003900BE008980068406A9DF88B
:1033B0000A10084004990870049801300490FFE74F
:1033C0000899B1F85E000138A1F85E00C5E70899D8
:1033D0002020C1F88C0000208DF8270003E0022097
:1033E0008DF82700FFE79DF827000AB080BD000098
:1033F00080B58AB008900791ADF81A200593089817
:10340000D0F88800202840F08780FFE7079820B197
:10341000FFE7BDF81A0020B9FFE701208DF827006B
:103420007EE008990020C1F8900008992120C1F899
:103430008800FEF731F90290BDF81A000899A1F84A
:103440005400BDF81A000899A1F856000898806841
:10345000B0F5805F09D1FFE70898006928B9FFE758
:10346000002004900798039004E00798049000203F
:103470000390FFE7FFE70898B0F8560088B3FFE72E
:103480000898029B05996A4611608021002205F088
:10349000EBFB40B1FFE708992020C1F8880003202A
:1034A0008DF827003CE0049858B9FFE7039800889E
:1034B0006FF35F20089909688862039802300390CF
:1034C00008E0049800780899096888620498013037
:1034D0000490FFE70899B1F856000138A1F85600AA
:1034E000C9E70898029B05996A46116040210022AD
:1034F00005F0BAFB40B1FFE708992020C1F8880029
:1035000003208DF827000BE008992020C1F88800DF
:1035100000208DF8270003E002208DF82700FFE748
:103520009DF827000AB080BD82B00190019848F64E
:103530005C21C5F20261086048F25C20C5F20260BD
:1035400000680090009802B07047000082B00190BF
:10355000019848F65C21C5F20261086048F25C20DF
:10356000C5F2026000680090009802B07047000049
:1035700082B00190019848F66C21C5F202610860A2
:1035800048F26C20C5F2026000680090009802B01A
:103590007047000048F24820C5F202600068C0F39E
:1035A0008010704781B0009048F24410C5F202606C
:1035B000006800F0700001B07047000048F244104D
:1035C000C5F20260006880B2000A704781B00090C6
:1035D00048F24410C5F20260006800F0070001B034
:1035E0007047000048F22400C5F20260006800F451
:1035F000E000704748F22400C5F20260006800F065
:103600000700704748F22400C5F20260006800F02D
:103610007000704748F22400C5F20260006800F4B0
:10362000E040704748F22400C5F20260006800F4F0
:10363000E020704781B0009048F25C10C5F2026053
:10364000006800F0070001B07047000082B00190F0
:103650009DF8040048F24411C5F20261084400904C
:10366000019800990968019A130EC2F3042293404D
:103670001940D14040EA014002B0704748F22000B2
:10368000C5F20260006800F44010704781B00090FD
:1036900048F24410C5F20260006800F4401001B026
:1036A0007047000048F24810C5F20260006800F060
:1036B000F000704781B0009048F24810C5F20260F7
:1036C000006800F4405001B07047000081B00090E5
:1036D00048F24810C5F20260006800F0030001B033
:1036E0007047000081B0009048F24C10C5F20260B3
:1036F000006800F0030001B07047000081B0009046
:1037000048F24C10C5F20260006800F0300001B0D1
:103710007047000080B582B001900198FFF796FFD6
:1037200002B080BD80B582B001900198FFF78EFF96
:1037300002B080BD80B582B001900198FFF786FF8E
:1037400002B080BD81B0009048F27810C5F20260EE
:10375000006800F4E06001B07047000081B00090A4
:1037600048F25010C5F20260006800F0407001B0ED
:103770007047000081B0009048F25410C5F202601A
:10378000006800F4E02001B07047000081B00090B4
:1037900048F25C10C5F20260006800F0300001B031
:1037A0007047000048F25C10C5F20260006800F447
:1037B0004070704780B582B001900198FFF746FFD6
:1037C00002B080BD80B582B001900198FFF73EFF46
:1037D00002B080BD81B0009048F26410C5F2026072
:1037E000006800F0070001B07047000080B582B0AB
:1037F00001900198FFF72AFF02B080BD48F2200037
:10380000C5F20260006800F04050704748F22400A2
:10381000C5F202600068C0F30160704780B582B0F5
:1038200001900198FFF712FF02B080BD80B582B011
:1038300001900198FFF70AFF02B080BD80B582B009
:1038400001900198FFF702FF02B080BD80B582B001
:1038500001900198FFF7FAFE02B080BD48F2040023
:10386000C5F202600068C0F30010704748F204001F
:10387000C5F202600068C0F30010704748F25400BF
:10388000C5F202600068C0F38010704749F2000181
:10389000C5F20261082008607047000048F6000188
:1038A000C5F20261082008607047000048F2480035
:1038B000C5F20260006800F4C070704748F248002A
:1038C000C5F20260006800F4C070704748F204005E
:1038D000C5F202600068C0F3C000704748F20400FF
:1038E000C5F202600068C0F3C000704781B000906C
:1038F00048F24801C5F20261086820F4FE00009A0F
:1039000040EA0240086001B07047000081B00090BA
:1039100048F24801C5F20261086820F4C070009ABC
:103920001043086001B0704748F2E800C5F2026039
:10393000006800F47F01012000EB11407047000097
:1039400048F2E800C5F20260006800F0405070479D
:1039500048F24020C5F202600068C0F34020704782
:1039600048F2EC00C5F20260006800F04050704779
:1039700048F2F000C5F20260006800F47F01012007
:1039800000EB11407047000048F2F000C5F2026001
:10399000006800F04050704748F24020C5F20260D5
:1039A0000068C0F3C020704748F2F400C5F202601E
:1039B000006800F47F01012000EB11407047000017
:1039C00048F2F400C5F20260006800F04050704711
:1039D00048F24020C5F202600068C0F30030704732
:1039E00048F2F800C5F20260006800F47F0101208F
:1039F00000EB11407047000048F2F800C5F2026089
:103A0000006800F04050704748F24020C5F2026064
:103A10000068C0F34030704748F2FC00C5F2026015
:103A2000006800F47F01012000EB114070470000A6
:103A300048F2FC00C5F20260006800F04050704798
:103A400048F24020C5F202600068C0F38030704741
:103A500048F20010C5F20260006800F47F01012006
:103A600000EB11407047000048F20010C5F2026000
:103A7000006800F04050704748F24020C5F20260F4
:103A8000006880B2C00B704748F20410C5F20260B3
:103A9000006800F47F01012000EB11407047000036
:103AA00048F20410C5F20260006800F04050704710
:103AB00048F24020C5F202600068C0F30040704741
:103AC00048F20810C5F20260006800F47F0101208E
:103AD00000EB11407047000048F20810C5F2026088
:103AE000006800F04050704748F24020C5F2026084
:103AF0000068C0F34040704748F20C10C5F2026005
:103B0000006800F47F01012000EB114070470000C5
:103B100048F20C10C5F20260006800F04050704797
:103B200048F24020C5F202600068C0F38040704750
:103B300048F64021C5F2026101200860704700008C
:103B400048F2C400C5F20260006800F47F01012061
:103B500000EB11407047000048F2C400C5F202605B
:103B6000006800F04050704748F21010C5F2026043
:103B7000006800F47F01012000EB11407047000055
:103B800048F21010C5F20260006800F04050704723
:103B900048F24020C5F202600068C0F3C0407047A0
:103BA00048F2C800C5F20260006800F47F010120FD
:103BB00000EB11407047000048F2C800C5F20260F7
:103BC000006800F04050704748F2CC00C5F2026037
:103BD000006800F47F01012000EB114070470000F5
:103BE00048F2CC00C5F20260006800F04050704717
:103BF00048F24020C5F202600068C0F380007047C0
:103C000048F2D000C5F20260006800F47F01012094
:103C100000EB11407047000048F2D000C5F202608E
:103C2000006800F04050704748F24020C5F2026042
:103C30000068C0F3C000704748F2D400C5F20260CB
:103C4000006800F47F01012000EB11407047000084
:103C500048F2D400C5F20260006800F0405070479E
:103C600048F24020C5F202600068C0F300107047BF
:103C700048F2D800C5F20260006800F0405070477A
:103C800048F2DC00C5F20260006800F47F01012008
:103C900000EB11407047000048F2DC00C5F2026002
:103CA000006800F04050704748F24020C5F20260C2
:103CB0000068C0F38010704748F2E000C5F202606F
:103CC000006800F47F01012000EB11407047000004
:103CD00048F2E000C5F20260006800F04050704712
:103CE00048F24020C5F202600068C0B2C0097047C7
:103CF00048F2E400C5F20260006800F47F01012090
:103D000000EB11407047000048F2E400C5F2026089
:103D1000006800F04050704748F24020C5F2026051
:103D20000068C0F30020704748F20400C5F202604A
:103D30000068C0F34000704748F20400C5F202601A
:103D40000068C0F34000704749F20001C5F202610B
:103D5000012008607047000048F60001C5F20261CA
:103D6000012008607047000048F20400C5F20260BC
:103D7000006800F00100704748F20400C5F20260DC
:103D8000006800F00100704749F20001C5F20261CD
:103D9000042008607047000048F60001C5F2026187
:103DA000042008607047000048F24400C5F2026039
:103DB000006800F40070704748F20400C5F2026029
:103DC0000068C0F38000704748F20400C5F202604A
:103DD0000068C0F38000704781B0009048F2440151
:103DE000C5F20261086820F4F810009A40EA024027
:103DF000086001B07047000081B0009048F24401B3
:103E0000C5F20261086820F40070009A104308604F
:103E100001B0704748F28800C5F202600068C0F344
:103E20008070704748F28400C5F20260006820F09C
:103E30007F40704748F28000C5F202600068C0F31E
:103E40000550704748F28000C5F202600068C0F378
:103E50000B20704748F28800C5F202600068C0F38A
:103E6000C260704748F28800C5F202600068C0F383
:103E70000260704748F28000C5F20260006800F0FE
:103E8000E040704748F28000C5F20260006800F030
:103E9000E040704748F28000C5F202600068C0F35D
:103EA000C060704748F28000C5F202600068C0F34D
:103EB000C060704748F20400C5F202600068C0F3B9
:103EC0000020704748F20400C5F202600068C0F3A9
:103ED0000020704748F29800C5F202600068C0F305
:103EE0008070704748F29400C5F20260006820F0CC
:103EF0007F40704748F29000C5F202600068C0F34E
:103F00000550704748F29000C5F202600068C0F3A7
:103F10000B20704748F29800C5F202600068C0F3B9
:103F2000C260704748F29800C5F202600068C0F3B2
:103F30000260704748F29000C5F20260006800F02D
:103F4000E040704748F29000C5F20260006800F05F
:103F5000E040704748F29000C5F202600068C0F38C
:103F6000C060704748F29000C5F202600068C0F37C
:103F7000C060704748F20400C5F202600068C0F3F8
:103F80004020704748F20400C5F202600068C0F3A8
:103F90004020704748F2A800C5F202600068C0F3F4
:103FA0008070704748F2A400C5F20260006820F0FB
:103FB0007F40704748F2A000C5F202600068C0F37D
:103FC0000550704748F2A000C5F202600068C0F3D7
:103FD0000B20704748F2A800C5F202600068C0F3E9
:103FE000C260704748F2A800C5F202600068C0F3E2
:103FF0000260704748F2A000C5F20260006800F05D
:10400000E040704748F2A000C5F20260006800F08E
:10401000E040704748F2A000C5F202600068C0F3BB
:10402000C060704748F2A000C5F202600068C0F3AB
:10403000C060704748F20400C5F202600068C0F337
:104040008020704748F20400C5F202600068C0F3A7
:104050008020704748F2B800C5F202600068C0F3E3
:104060008070704748F2B400C5F20260006820F02A
:104070007F40704748F2B000C5F202600068C0F3AC
:104080000550704748F2B000C5F202600068C0F306
:104090000B20704748F2B800C5F202600068C0F318
:1040A000C260704748F2B800C5F202600068C0F311
:1040B0000260704748F2B000C5F20260006800F08C
:1040C000E040704748F2B000C5F20260006800F0BE
:1040D000E040704748F2B000C5F202600068C0F3EB
:1040E000C060704748F2B000C5F202600068C0F3DB
:1040F000C060704748F20400C5F202600068C0F377
:10410000C020704748F20400C5F202600068C0F3A6
:10411000C020704780B58CB0002005900B900A90AD
:1041200009900890079004200390FFF7FDF9802084
:10413000FFF7FAF902200190FFF7F6F91020FFF7D8
:10414000F3F90120FFF7F0F9019A03980599079216
:1041500012220292089209910A910B9040F60000F7
:10416000C5F2026007A90691FDF762F8029B039869
:10417000059A06994FF4007CCDF81CC0089309926B
:104180000A920B9041F60040C5F20260FDF750F82C
:10419000029B0398059A06994FF4406CCDF810C025
:1041A000CDF81CC0089309920A920B9040F200408F
:1041B000C5F20260FDF73CF8049A0598069907924B
:1041C0000322089209900020C5F20260FDF730F842
:1041D0000CB080BD80B582B00190009140F2080023
:1041E000C3F21C40006801990860009800680199BA
:1041F000486001990C204861009840890199086144
:104200000098406801998860009800890199C86009
:10421000009880890199886101994FF40040C86134
:104220000199002048620198FEF7ACFF02B080BD02
:1042300088B0079006910592079800F00700049057
:104240000498C0F10700052803D3FFE7042001907C
:1042500004E00498C0F107000190FFE70198039083
:1042600004980430062803D8FFE70020009003E0FC
:10427000049803380090FFE700980290069803998D
:10428000012202FA01F101390840029B9840059988
:104290009A40013A1140084308B0704785B0DDF8F4
:1042A00018C0DDF814C004900391029201939DEDB3
:1042B000040AB8EE400A9DED021AB8EE411A9DEDCF
:1042C000012AB8EE422A9FED163A22EE032A31EE79
:1042D000021A20EE010A9DED031AB8EE411A80EE93
:1042E000010A8DED000A9DED000A9DED051AB8EE5C
:1042F000411A80EE010A8DED000A9DED000A9DED48
:10430000061AB8EE411A80EE010A8DED000A9DED05
:10431000000ABCEEC00A10EE100A05B0704700BFDC
:104320000000803380B588B0079000200690079881
:10433000FFF738F90146049100B3FFE7049810280D
:1043400022D0FFE70498202823D0FFE704983028E4
:1043500063D0FFE70498402800F0B280FFE704989C
:10436000502800F09E80FFE70498602800F0B3809A
:10437000FFE70498702800F0B480BCE0FEF758FA1C
:1043800000F018FE0690B7E0072000F097F90690BD
:10439000B2E0FFF789FC00283ED0FFE7FFF770FC92
:1043A0000590FFF779FC0146039178B1FFE7039888
:1043B000B0F1805F13D0FFE70398B0F1005F17D032
:1043C000FFE70398B0F1405F1BD023E0FDF72AFA26
:1043D000069006980599B0FBF1F006901BE0FDF7FA
:1043E0006DFA069006980599B0FBF1F0069012E080
:1043F000FDF7B0FA069006980599B0FBF1F006902B
:1044000009E0FDF7F3FA069006980599B0FBF1F084
:10441000069000E0FFE7FFE76EE0FFF761FC002891
:104420003ED0FFE7FFF748FC0590FFF751FC01463F
:10443000029178B1FFE70298B0F1805F13D0FFE7F7
:104440000298B0F1005F17D0FFE70298B0F1405F2B
:104450001BD023E0FDF7E6F9069006980599B0FB1E
:10446000F1F006901BE0FDF729FA069006980599F1
:10447000B0FBF1F0069012E0FDF76CFA069006989A
:104480000599B0FBF1F0069009E0FDF7AFFA069050
:1044900006980599B0FBF1F0069000E0FFE7FFE712
:1044A0002AE0FFF713FA50B1FFE7FFF7FFF9C10960
:1044B00049F20000C0F2D030C8400690FFE71BE090
:1044C000FFF77AFC30B1FFE740F60010C0F23D0084
:1044D0000690FFE710E048F20000C0F2BB00069033
:1044E0000AE0FEF7A5F90190FFF790F9014601985F
:1044F000C840069000E0FFE706980090FFF75EF8DE
:10450000014600980131B0FBF1F008B080BD000019
:1045100080B588B00790002006900798FFF756F8FE
:1045200001460491072800F2C4800499DFE801F0F5
:10453000040A0F53A697B1B7FEF77AF900F03AFDD7
:104540000690B7E0072000F0B9F80690B2E0FFF758
:10455000ABFB00283ED0FFE7FFF792FB0590FFF78B
:104560009BFB0146039178B1FFE70398B0F1805FB0
:1045700013D0FFE70398B0F1005F17D0FFE703986F
:10458000B0F1405F1BD023E0FDF74CF90690069890
:104590000599B0FBF1F006901BE0FDF78FF906904E
:1045A00006980599B0FBF1F0069012E0FDF7D2F9FC
:1045B000069006980599B0FBF1F0069009E0FDF72A
:1045C00015FA069006980599B0FBF1F0069000E008
:1045D000FFE7FFE76EE0FFF783FB00283ED0FFE731
:1045E000FFF76AFB0590FFF773FB0146029178B174
:1045F000FFE70298B0F1805F13D0FFE70298B0F1B7
:10460000005F17D0FFE70298B0F1405F1BD023E0B6
:10461000FDF708F9069006980599B0FBF1F00690B1
:104620001BE0FDF74BF9069006980599B0FBF1F0F9
:10463000069012E0FDF78EF9069006980599B0FBFA
:10464000F1F0069009E0FDF7D1F90690069805997A
:10465000B0FBF1F0069000E0FFE7FFE72AE0FFF78C
:1046600035F950B1FFE7FFF721F9C10949F2000020
:10467000C0F2D030C8400690FFE71BE0FFF79CFB7C
:1046800030B1FFE740F60010C0F23D000690FFE7B2
:1046900010E048F20000C0F2BB0006900AE0FEF70E
:1046A000C7F80190FFF7B2F801460198C84006909C
:1046B00000E0FFE7069808B080BD000080B58AB032
:1046C000099000200890FEF765FF012840F08F81D7
:1046D000FFE70998FEF7AEFF01460691072800F2B2
:1046E00084810699DFE811F0080017002200F90024
:1046F0002D007100B5003D01FFF7E8F850B1FFE76C
:10470000FFF7D4F8C10949F20000C0F2D030C84028
:104710000890FFE76AE1FFF74FFB30B1FFE740F693
:104720000010C0F23D000890FFE75FE1FFF796F848
:1047300030B1FFE743F20060C0F26E100890FFE76F
:1047400054E1FFF78DFA00283ED0FFE7FFF774FA37
:104750000790FFF77DFA0146059178B1FFE70598CC
:10476000B0F1805F13D0FFE70598B0F1005F17D07C
:10477000FFE70598B0F1405F1BD023E0FDF752F84A
:10478000089008980799B0FBF1F008901BE0FDF73E
:1047900095F8089008980799B0FBF1F0089012E09E
:1047A000FDF7D8F8089008980799B0FBF1F0089049
:1047B00009E0FDF71BF9089008980799B0FBF1F0A4
:1047C000089000E0FFE7FFE710E1FFF7C1F80028DD
:1047D0003ED0FFE7FFF7A8F80790FFF7B1F80146D2
:1047E000049178B1FFE70498B0F1805F13D0FFE740
:1047F0000498B0F1005F17D0FFE70498B0F1405F74
:104800001BD023E0FDF70EF8089008980799B0FB3D
:10481000F1F008901BE0FDF751F80890089807990F
:10482000B0FBF1F0089012E0FDF794F808900898BA
:104830000799B0FBF1F0089009E0FDF7D7F8089070
:1048400008980799B0FBF1F0089000E0FFE7FFE758
:10485000CCE0FFF7F5F800283ED0FFE7FFF7DCF8E3
:104860000790FFF7E5F80146039178B1FFE7039859
:10487000B0F1805F13D0FFE70398B0F1005F17D06D
:10488000FFE70398B0F1405F1BD023E0FCF7CAFFBD
:10489000089008980799B0FBF1F008901BE0FDF72D
:1048A0000DF8089008980799B0FBF1F0089012E015
:1048B000FDF750F8089008980799B0FBF1F00890C0
:1048C00009E0FDF793F8089008980799B0FBF1F01C
:1048D000089000E0FFE7FFE788E0FFF721F90028F4
:1048E0003ED0FFE7FFF708F90790FFF711F90146FF
:1048F000029178B1FFE70298B0F1805F13D0FFE733
:104900000298B0F1005F17D0FFE70298B0F1405F66
:104910001BD023E0FCF786FF089008980799B0FBAE
:10492000F1F008901BE0FCF7C9FF08900898079980
:10493000B0FBF1F0089012E0FDF70CF80890089831
:104940000799B0FBF1F0089009E0FDF74FF80890E7
:1049500008980799B0FBF1F0089000E0FFE7FFE747
:1049600044E0FFF715F900283ED0FFE7FFF7FCF819
:104970000790FFF705F90146019178B1FFE701982B
:10498000B0F1805F13D0FFE70198B0F1005F17D05E
:10499000FFE70198B0F1405F1BD023E0FCF742FF36
:1049A000089008980799B0FBF1F008901BE0FCF71D
:1049B00085FF089008980799B0FBF1F0089012E085
:1049C000FCF7C8FF089008980799B0FBF1F0089031
:1049D00009E0FDF70BF8089008980799B0FBF1F093
:1049E000089000E0FFE7FFE700E0FFE7FFE7089837
:1049F0000AB080BD80B584B000200390FFF774F842
:104A000000283ED0FFE7FFF75BF80290FFF764F85D
:104A10000146019178B1FFE70198B0F1805F13D0B2
:104A2000FFE70198B0F1005F17D0FFE70198B0F100
:104A3000405F1BD023E0FCF7F5FE0390039802993A
:104A4000B0FBF1F003901BE0FCF738FF03900398F4
:104A50000299B0FBF1F0039012E0FCF77BFF0390AA
:104A600003980299B0FBF1F0039009E0FCF7BEFF58
:104A7000039003980299B0FBF1F0039000E0FFE788
:104A8000FFE7039804B080BD80B586B00590002094
:104A900004900598FEF7FAFD0146029178B1FFE710
:104AA0000298B0F5801F12D0FFE70298B0F5001F02
:104AB00012D0FFE70298B0F5401F51D05FE0FDF73C
:104AC000B7FE00F077FA01F051FA049058E00720A1
:104AD000FFF7F4FD049053E0FEF7EAFF00283ED014
:104AE000FFE7FEF7D1FF0390FEF7DAFF01460191E1
:104AF00078B1FFE70198B0F1805F13D0FFE701982C
:104B0000B0F1005F17D0FFE70198B0F1405F1BD014
:104B100023E0FCF787FE049004980399B0FBF1F0C2
:104B200004901BE0FCF7CAFE049004980399B0FBC4
:104B3000F1F0049012E0FCF70DFF04900498039943
:104B4000B0FBF1F0049009E0FCF750FF04900498EA
:104B50000399B0FBF1F0049000E0FFE7FFE70FE0FE
:104B6000FEF7B4FE50B1FFE7FEF7A0FEC10949F21F
:104B70000000C0F2D030C8400490FFE700E0FFE73B
:104B8000049806B080BD000080B586B00590002076
:104B900004900598FEF78EFD0146029178B1FFE77B
:104BA0000298B0F5805F10D0FFE70298B0F5005F83
:104BB00010D0FFE70298B0F5405F4FD059E0FDF705
:104BC00037FE00F0F7F9049054E00720FFF776FD78
:104BD00004904FE0FEF7E0FE00283ED0FFE7FEF72E
:104BE000C7FE0390FEF7D0FE0146019178B1FFE7C2
:104BF0000198B0F1805F13D0FFE70198B0F1005F3A
:104C000017D0FFE70198B0F1405F1BD023E0FCF71D
:104C100009FE049004980399B0FBF1F004901BE0A6
:104C2000FCF74CFE049004980399B0FBF1F004905B
:104C300012E0FCF78FFE049004980399B0FBF1F0AA
:104C4000049009E0FCF7D2FE049004980399B0FBAD
:104C5000F1F0049000E0FFE7FFE70BE0FEF7FEFD58
:104C600030B1FFE743F20060C0F26E100490FFE73E
:104C700000E0FFE7049806B080BD000080B586B074
:104C80000590002004900598FEF720FD0146029152
:104C900003285ED80299DFE801F002080D51FDF704
:104CA000C7FD00F087F9049054E00720FFF706FDE8
:104CB00004904FE0FEF78CFE00283ED0FFE7FEF7A1
:104CC00073FE0390FEF77CFE0146019178B1FFE789
:104CD0000198B0F1805F13D0FFE70198B0F1005F59
:104CE00017D0FFE70198B0F1405F1BD023E0FCF73D
:104CF00099FD049004980399B0FBF1F004901BE037
:104D0000FCF7DCFD049004980399B0FBF1F00490EB
:104D100012E0FCF71FFE049004980399B0FBF1F039
:104D2000049009E0FCF762FE049004980399B0FB3C
:104D3000F1F0049000E0FFE7FFE70BE0FEF78EFDE7
:104D400030B1FFE743F20060C0F26E100490FFE75D
:104D500000E0FFE704980090FEF7A4FC02460098EC
:104D6000012101EB1211B0FBF1F006B080BD000093
:104D700080B586B00590002004900598FEF7B2FC3F
:104D800001460291032860D80299DFE801F0020A87
:104D90000F53FDF74DFD00F00DF901F0BDF8049043
:104DA00054E00720FFF78AFC04904FE0FEF7B8FEBE
:104DB00000283ED0FFE7FEF79FFE0390FEF7A8FE17
:104DC0000146019178B1FFE70198B0F1805F13D0FF
:104DD000FFE70198B0F1005F17D0FFE70198B0F14D
:104DE000405F1BD023E0FCF71DFD0490049803995D
:104DF000B0FBF1F004901BE0FCF760FD0490049818
:104E00000399B0FBF1F0049012E0FCF7A3FD0490CD
:104E100004980399B0FBF1F0049009E0FCF7E6FD7B
:104E2000049004980399B0FBF1F0049000E0FFE7D0
:104E3000FFE70BE0FEF712FD30B1FFE743F2006041
:104E4000C0F26E100490FFE700E0FFE7049806B0A0
:104E500080BD000080B586B00590002004900598C4
:104E6000FEF74CFC0146029160B1FFE70298102862
:104E70000ED0FFE7029820280FD0FFE702983028D5
:104E80004FD092E0FDF7D4FC00F094F804908DE050
:104E90000720FFF713FC049088E0FEF7A9FE002826
:104EA0003ED0FFE7FEF790FE0390FEF799FE014625
:104EB000019178B1FFE70198B0F1805F13D0FFE76F
:104EC0000198B0F1005F17D0FFE70198B0F1405FA3
:104ED0001BD023E0FCF7A6FC049004980399B0FBD8
:104EE000F1F004901BE0FCF7E9FC049004980399AE
:104EF000B0FBF1F0049012E0FCF72CFD0490049854
:104F00000399B0FBF1F0049009E0FCF76FFD049009
:104F100004980399B0FBF1F0049000E0FFE7FFE78D
:104F200044E0FEF781FE00283ED0FFE7FEF768FE72
:104F30000390FEF771FE0146009178B1FFE70098FB
:104F4000B0F1805F13D0FFE70098B0F1005F17D099
:104F5000FFE70098B0F1405F1BD023E0FCF762FC54
:104F6000049004980399B0FBF1F004901BE0FCF767
:104F7000A5FC049004980399B0FBF1F0049012E0B2
:104F8000FCF7E8FC049004980399B0FBF1F004905E
:104F900009E0FCF72BFD049004980399B0FBF1F0B5
:104FA000049000E0FFE7FFE700E0FFE7049806B0A9
:104FB00080BD000080B582B0019001980090FEF79E
:104FC00011FB01460098C1F30251C84002B080BDF8
:104FD00080B586B00590002004900598FEF79AFBF6
:104FE000014602910C21C0F20071884200F0C98094
:104FF000FFE7029840F20C41C0F20071884200F0D5
:10500000C080FFE7029840F60C01C0F200718842B0
:1050100000F0B780FFE7029840F60C41C0F2007143
:10502000884200F0AE80FFE702980C21C0F20171C7
:10503000884200F0AE80FFE7029840F20C41C0F2D7
:105040000171884200F0A580FFE7029840F60C014C
:10505000C0F20171884200F09C80FFE7029840F6A0
:105060000C41C0F20171884200F09380FFE7029882
:105070000C21C0F20271884200F09080FFE7029894
:1050800040F20C41C0F20271884200F08780FFE7D5
:10509000029840F60C01C0F2027188427ED0FFE710
:1050A000029840F60C41C0F20271884276D0FFE7C8
:1050B00002980C21C0F20371884200F0B380FFE730
:1050C000029840F20C41C0F20371884200F0AA80BD
:1050D000FFE7029840F60C01C0F20371884200F02D
:1050E000A180FFE7029840F60C41C0F203718842AC
:1050F00000F09880FFE702980C21C0F2047188420A
:1051000000F0E380FFE7029840F20C41C0F2047126
:10511000884200F0DA80FFE7029840F60C01C0F206
:105120000471884200F0D180FFE7029840F60C41FC
:10513000C0F20471884200F0C880FFE702980C2199
:10514000C0F20571884200F0B180FFE7029840F29A
:105150000C41C0F20571884200F0A880FFE7029878
:1051600040F60C01C0F20571884200F09F80FFE715
:10517000029840F60C41C0F20571884200F096801A
:10518000AEE0FDF755FBFFF715FF00F0C5FE0490FC
:10519000A7E00720FFF792FA0490A2E0FEF7D8FB01
:1051A00000283ED0FFE7FEF7BFFB0390FEF7C8FBE9
:1051B0000146019178B1FFE70198B0F1805F13D00B
:1051C000FFE70198B0F1005F17D0FFE70198B0F159
:1051D000405F1BD023E0FCF725FB04900498039963
:1051E000B0FBF1F004901BE0FCF768FB049004981E
:1051F0000399B0FBF1F0049012E0FCF7ABFB0490D4
:1052000004980399B0FBF1F0049009E0FCF7EEFB81
:10521000049004980399B0FBF1F0049000E0FFE7DC
:10522000FFE75EE0FEF70CFC00283ED0FFE7FEF74C
:10523000F3FB0390FEF7FCFB0146009178B1FFE71A
:105240000098B0F1805F13D0FFE70098B0F1005FE5
:1052500017D0FFE70098B0F1405F1BD023E0FCF7C8
:10526000E1FA049004980399B0FBF1F004901BE07C
:10527000FCF724FB049004980399B0FBF1F0049030
:1052800012E0FCF767FB049004980399B0FBF1F07F
:10529000049009E0FCF7AAFB049004980399B0FB82
:1052A000F1F0049000E0FFE7FFE71AE0FEF70EFBE5
:1052B00050B1FFE7FEF7FAFAC10949F20000C0F267
:1052C000D030C8400490FFE70BE0FEF775FD30B129
:1052D000FFE740F60010C0F23D000490FFE700E059
:1052E000FFE7049806B080BD80B586B00590002029
:1052F00004900598FEF716FA0146029141F20C015E
:10530000C0F2007188425CD0FFE7029841F20C4184
:10531000C0F20071884254D0FFE7029841F20C01BC
:10532000C0F20171884254D0FFE7029841F20C416B
:10533000C0F2017188424CD0FFE7029841F20C01A3
:10534000C0F20271884249D0FFE7029841F20C4155
:10535000C0F20271884241D0FFE7029841F20C018D
:10536000C0F2037188427DD0FFE7029841F20C4100
:10537000C0F20371884275D0FFE7029841F20C0138
:10538000C0F20471884200F0C080FFE7029841F249
:105390000C41C0F20471884200F0B780FFE7029828
:1053A00041F20C01C0F20571884200F09F80FFE7D6
:1053B000029841F20C41C0F20571884200F09680DB
:1053C000AEE0FDF735FAFFF7F5FD00F0A5FD04901E
:1053D000A7E00720FFF772F90490A2E0FEF7B8FA01
:1053E00000283ED0FFE7FEF79FFA0390FEF7A8FAE9
:1053F0000146019178B1FFE70198B0F1805F13D0C9
:10540000FFE70198B0F1005F17D0FFE70198B0F116
:10541000405F1BD023E0FCF705FA04900498039941
:10542000B0FBF1F004901BE0FCF748FA04900498FC
:105430000399B0FBF1F0049012E0FCF78BFA0490B2
:1054400004980399B0FBF1F0049009E0FCF7CEFA60
:10545000049004980399B0FBF1F0049000E0FFE79A
:10546000FFE75EE0FEF7ECFA00283ED0FFE7FEF72C
:10547000D3FA0390FEF7DCFA0146009178B1FFE71A
:105480000098B0F1805F13D0FFE70098B0F1005FA3
:1054900017D0FFE70098B0F1405F1BD023E0FCF786
:1054A000C1F9049004980399B0FBF1F004901BE05B
:1054B000FCF704FA049004980399B0FBF1F004900F
:1054C00012E0FCF747FA049004980399B0FBF1F05E
:1054D000049009E0FCF78AFA049004980399B0FB61
:1054E000F1F0049000E0FFE7FFE71AE0FEF7EEF9C5
:1054F00050B1FFE7FEF7DAF9C10949F20000C0F246
:10550000D030C8400490FFE70BE0FEF755FC30B107
:10551000FFE740F60010C0F23D000490FFE700E016
:10552000FFE7049806B080BD80B586B005900020E6
:1055300004900598FEF7FEF80146029140F62C0112
:10554000C0F20071884200F00381FFE7029840F644
:105550002C41C0F20071884200F00281FFE70298FE
:1055600041F22C01C0F20071884200F0F980FFE79F
:10557000029841F22C41C0F20071884200F0F080A4
:10558000FFE7029841F62C01C0F20071884200F05A
:10559000E780FFE7029840F62C01C0F201718842D3
:1055A00000F0E680FFE7029840F62C41C0F201715E
:1055B000884200F0DD80FFE7029841F22C01C0F242
:1055C0000171884200F0D480FFE7029841F22C413B
:1055D000C0F20171884200F0CB80FFE7029841F6EB
:1055E0002C01C0F20171884200F0C280FFE70298EE
:1055F00040F62C01C0F20271884200F0BE80FFE745
:10560000029840F62C41C0F20271884200F0B58049
:10561000FFE7029841F22C01C0F20271884200F0CB
:10562000AC80FFE7029841F22C41C0F2027188423F
:1056300000F0A380FFE7029841F62C01C0F202714E
:10564000884200F09A80FFE7029840F62C01C0F2F1
:105650000371884200F0D580FFE7029840F62C41A4
:10566000C0F20371884200F0CC80FFE7029841F25B
:105670002C01C0F20371884200F0C380FFE702985A
:1056800041F22C41C0F20371884200F0BA80FFE77A
:10569000029841F62C01C0F20371884200F0B180FB
:1056A000FFE7029840F62C01C0F20471884200F036
:1056B000B180FFE7029840F62C41C0F204718842A5
:1056C00000F0A880FFE7029841F22C01C0F20471BB
:1056D000884200F09F80FFE7029841F22C41C0F21F
:1056E0000471884200F09680FFE7029841F62C0191
:1056F000C0F20471884200F08D80FFE7029840F606
:105700002C01C0F20571884200F08D80FFE70298FD
:1057100040F62C41C0F20571884200F08480FFE71A
:10572000029841F22C01C0F2057188427BD0FFE75C
:10573000029841F22C41C0F20571884273D0FFE714
:10574000029841F62C01C0F2057188426BD074E0DA
:10575000FDF76EF8FFF72EFC00F0DEFB04906DE025
:10576000FDF766F8FFF726FC00F0F2FB049065E019
:105770000720FEF7A3FF049060E0FEF761F9002820
:105780003ED0FFE7FEF748F90390FEF751F90146D6
:10579000019178B1FFE70198B0F1805F13D0FFE786
:1057A0000198B0F1005F17D0FFE70198B0F1405FBA
:1057B0001BD023E0FCF736F8049004980399B0FB63
:1057C000F1F004901BE0FCF779F804900498039939
:1057D000B0FBF1F0049012E0FCF7BCF804900498E0
:1057E0000399B0FBF1F0049009E0FCF7FFF8049096
:1057F00004980399B0FBF1F0049000E0FFE7FFE7A5
:105800001CE0FEF791FA20B1FFE74FF4004004904E
:10581000FFE713E0FEF7A8FA20B1FFE74FF4FA40E4
:105820000490FFE70AE0FDF703F80090FDF7EEFFB4
:1058300001460098C840049000E0FFE7049806B0D5
:1058400080BD000080B586B00590002004900598CA
:10585000FDF778FF0146029108B3FFE70298B0F523
:10586000807F24D0FFE70298B0F5007F24D0FFE7C7
:105870000298B0F5407F63D0FFE70298B0F5806FE3
:1058800000F0BC80FFE70298B0F5A06F00F0AB809D
:10589000FFE70298B0F5C06F00F09680B7E0FCF724
:1058A000C7FFFFF787FB00F053FB0490B0E0072031
:1058B000FEF704FF0490ABE0FEF72EFA00283ED07E
:1058C000FFE7FEF715FA0390FEF71EFA0146019175
:1058D00078B1FFE70198B0F1805F13D0FFE701983E
:1058E000B0F1005F17D0FFE70198B0F1405F1BD027
:1058F00023E0FBF797FF049004980399B0FBF1F0C5
:1059000004901BE0FBF7DAFF049004980399B0FBC6
:10591000F1F0049012E0FCF71DF80490049803994C
:10592000B0FBF1F0049009E0FCF760F804900498F3
:105930000399B0FBF1F0049000E0FFE7FFE767E0B8
:10594000FEF762F800283ED0FFE7FEF749F8039023
:10595000FEF752F80146009178B1FFE70098B0F1E8
:10596000805F13D0FFE70098B0F1005F17D0FFE72A
:105970000098B0F1405F1BD023E0FBF753FF049089
:1059800004980399B0FBF1F004901BE0FBF796FF3D
:10599000049004980399B0FBF1F0049012E0FBF737
:1059A000D9FF049004980399B0FBF1F0049009E04A
:1059B000FCF71CF8049004980399B0FBF1F00490F4
:1059C00000E0FFE7FFE723E0FDF780FF50B1FFE7CE
:1059D000FDF76CFFC10949F20000C0F2D030C840A9
:1059E0000490FFE714E0FEF7E7F930B1FFE740F677
:1059F0000010C0F23D000490FFE709E0FEF794F9C3
:105A000020B1FFE74FF400400490FFE700E0FFE71C
:105A1000049806B080BD000080B586B005900020D7
:105A200004900598FDF79AFE0146029178B1FFE7D0
:105A30000298B0F1807F12D0FFE70298B0F1007FAA
:105A400012D0FFE70298B0F1407F51D05FE0FCF741
:105A5000EFFEFFF7AFFA00F089FA049058E0072054
:105A6000FEF72CFE049053E0FEF706F800283ED027
:105A7000FFE7FDF7EDFF0390FDF7F6FF014601910B
:105A800078B1FFE70198B0F1805F13D0FFE701988C
:105A9000B0F1005F17D0FFE70198B0F1405F1BD075
:105AA00023E0FBF7BFFE049004980399B0FBF1F0EC
:105AB00004901BE0FBF702FF049004980399B0FBED
:105AC000F1F0049012E0FBF745FF0490049803996D
:105AD000B0FBF1F0049009E0FBF788FF0490049814
:105AE0000399B0FBF1F0049000E0FFE7FFE70FE05F
:105AF000FDF7ECFE50B1FFE7FDF7D8FEC10949F212
:105B00000000C0F2D030C8400490FFE700E0FFE79B
:105B1000049806B080BD000080B588B007900020D2
:105B200006900798FDF726FE0146049138B3FFE77B
:105B30000498B0F5803F28D0FFE70498B0F5003F07
:105B400028D0FFE70498B0F5403F67D0FFE70498FE
:105B5000B0F5802F00F0B580FFE70498B0F5A02FD6
:105B600000F0A080FFE70498B0F5C02F00F0B480EB
:105B7000FFE70498B0F5E02F00F0B480BCE0FCF73C
:105B800057FEFFF717FA0690B7E00720FEF796FDDD
:105B90000690B2E0FEF788F800283ED0FFE7FEF757
:105BA0006FF80590FEF778F80146039178B1FFE7AA
:105BB0000398B0F1805F13D0FFE70398B0F1005F66
:105BC00017D0FFE70398B0F1405F1BD023E0FBF74D
:105BD00029FE069006980599B0FBF1F006901BE0AF
:105BE000FBF76CFE069006980599B0FBF1F0069065
:105BF00012E0FBF7AFFE069006980599B0FBF1F0B6
:105C0000069009E0FBF7F2FE069006980599B0FBB6
:105C1000F1F0069000E0FFE7FFE76EE0FEF760F8C6
:105C200000283ED0FFE7FEF747F80590FEF750F852
:105C30000146029178B1FFE70298B0F1805F13D07E
:105C4000FFE70298B0F1005F17D0FFE70298B0F1CC
:105C5000405F1BD023E0FBF7E5FD06900698059911
:105C6000B0FBF1F006901BE0FBF728FE06900698CB
:105C70000599B0FBF1F0069012E0FBF76BFE069081
:105C800006980599B0FBF1F0069009E0FBF7AEFE2F
:105C9000069006980599B0FBF1F0069000E0FFE74A
:105CA000FFE72AE0FDF712FE50B1FFE7FDF7FEFD2A
:105CB000C10949F20000C0F2D030C8400690FFE7A9
:105CC0001BE0FEF779F830B1FFE740F60010C0F2B4
:105CD0003D000690FFE710E048F20000C0F2BB0074
:105CE00006900AE0FCF7A4FD0190FDF78FFD014648
:105CF0000198C840069000E0FFE7069808B080BD14
:105D000080B584B00390002002900398FDF796FDC3
:105D10000146019141F21401C0F2001188422ED0D7
:105D2000FFE7019841F61401C0F2001188422ED01D
:105D3000FFE7019841F21401C0F20111884208D036
:105D4000FFE7019841F61401C0F20111884226D103
:105D5000FFE7FDF783FD88B1FFE7FDF78FFD30B961
:105D6000FFE743F20060C0F26E10029005E041F6DA
:105D70000030C0F2B7000290FFE7FFE710E040F606
:105D80001440C0F2003000F00FF8029008E041F239
:105D90001440C0F2003000F007F8029000E0FFE786
:105DA000029804B080BD000080B586B00590002048
:105DB00004900598FDF742FD0146029140F614411A
:105DC000C0F2003188423DD0FFE7029841F2144111
:105DD000C0F20031884235D0FFE7029840F6144106
:105DE000C0F20131884228D0FFE7029841F2144105
:105DF000C0F20131884220D0FFE7029840F61441FA
:105E0000C0F2023188423ED0FFE7029841F21441CD
:105E1000C0F20231884236D0FFE7029840F61441C2
:105E2000C0F20331884218D0FFE7029841F21441D2
:105E3000C0F20331884210D069E00720FEF73EFC33
:105E4000049065E0FDF70AFD30B1FFE741F6003050
:105E5000C0F2B7000490FFE75AE0FDF7FFFC88B1FD
:105E6000FFE7FDF70BFD30B9FFE743F20060C0F23A
:105E70006E10049005E041F60030C0F2B7000490C7
:105E8000FFE7FFE744E0FDF7DBFD00283ED0FFE73A
:105E9000FDF7C2FD0390FDF7CBFD0146019178B1FE
:105EA000FFE70198B0F1805F13D0FFE70198B0F1F0
:105EB000005F17D0FFE70198B0F1405F1BD023E0EF
:105EC000FBF7B0FC049004980399B0FBF1F0049048
:105ED0001BE0FBF7F3FC049004980399B0FBF1F08E
:105EE000049012E0FBF736FD049004980399B0FB90
:105EF000F1F0049009E0FBF779FD04900498039910
:105F0000B0FBF1F0049000E0FFE7FFE700E0FFE7FF
:105F1000049806B080BD000080B582B00190019861
:105F20000090FDF767FB0146009801F00701C840AB
:105F300002B080BD80B582B0019001980090FDF75D
:105F400061FB01460098C1F30211C84002B080BD58
:105F500080B582B0019001980090FDF75BFB01468F
:105F60000098C1F30231C84002B080BD80B582B054
:105F7000019001980090FDF755FB01460098C1F390
:105F80000241C84002B080BD80B584B003900020BB
:105F900002900398019078B1FFE70198B0F1805F1B
:105FA00019D0FFE70198B0F1005F2AD0FFE7019810
:105FB000B0F1405F30D035E0FDF788FC50B1FFE72D
:105FC000FDF774FCC10949F20000C0F2D030C840AE
:105FD0000290FFE727E0FDF7EFFE88B1FFE7FDF74E
:105FE000E3FE30B9FFE740F60010C0F23D0002903A
:105FF00005E042F20040C0F2F4000290FFE7FFE744
:1060000011E0FDF72BFC30B1FFE743F20060C0F276
:106010006E100290FFE706E048F20000C0F2BB00FD
:10602000029000E0FFE7029804B080BD80B586B022
:106030000590002004900598FDF7A8FB0146029109
:1060400060B1FFE7029810280ED0FFE702982028E1
:106050000FD0FFE7029830284FD05DE0FCF7E8FB57
:10606000FEF7A8FF049058E00720FEF727FB0490F6
:1060700053E0FDF78DFD00283ED0FFE7FDF774FDEE
:106080000390FDF77DFD0146019178B1FFE701988E
:10609000B0F1805F13D0FFE70198B0F1005F17D037
:1060A000FFE70198B0F1405F1BD023E0FBF7BAFB9C
:1060B000049004980399B0FBF1F004901BE0FBF707
:1060C000FDFB049004980399B0FBF1F0049012E0FA
