:020000043418AE
:10040000F8FF1F3489881834B51018345909183486
:10041000B5101834B5101834B5101834B510183498
:10042000000000000000000000000000B5101834BB
:10043000B5101834000000009B08183435891834B2
:10044000B510183400000000B5101834B510183479
:10045000B5101834B5101834B5101834B510183458
:10046000B510183400000000B5101834B510183459
:10047000B5101834B5101834B51018340000000049
:10048000B510183400000000B5101834B510183439
:10049000B9101834CD101834E1101834F510183490
:1004A00009111834B5101834B5101834B5101834B3
:1004B000B5101834B5101834B5101834B5101834F8
:1004C000B5101834B5101834B5101834B5101834E8
:1004D000B5101834B5101834B5101834B5101834D8
:1004E000B510183400000000B5101834B5101834D9
:1004F000B5101834B5101834B5101834B5101834B8
:10050000B5101834000000000000000000000000DA
:10051000B5101834B5101834B5101834B510183497
:10052000B5101834B5101834B5101834B510183487
:10053000B5101834B5101834B5101834B510183477
:10054000B5101834B5101834B5101834B510183467
:10055000B5101834B5101834B5101834B510183457
:10056000B5101834B5101834B5101834B510183447
:10057000B5101834B5101834B5101834B510183437
:10058000B5101834B5101834B5101834B510183427
:10059000B5101834B5101834B5101834B510183417
:1005A000B5101834B5101834B5101834B510183407
:1005B000B5101834B5101834B5101834B5101834F7
:1005C000B5101834B5101834B5101834B5101834E7
:1005D000B5101834B5101834B5101834B5101834D7
:1005E000B5101834B5101834B5101834B5101834C7
:1005F000B5101834B5101834B5101834B5101834B7
:10060000B5101834B5101834B5101834B5101834A6
:10061000B5101834B5101834B5101834B510183496
:10062000B5101834B5101834B5101834B510183486
:10063000B5101834B5101834B5101834B510183476
:10064000B5101834B5101834B5101834B510183466
:10065000B5101834B5101834B5101834B510183456
:10066000B5101834B5101834B5101834B510183446
:10067000B5101834B5101834B5101834B510183436
:10068000B5101834B5101834B5101834B510183426
:10069000B5101834B5101834B5101834B510183416
:1006A000B5101834B5101834B5101834B510183406
:1006B000B5101834B5101834B5101834319A1834F0
:1006C000B5101834B5101834B5101834B5101834E6
:1006D000B5101834B5101834B5101834B5101834D6
:1006E000B5101834B5101834B5101834B5101834C6
:1006F000B5101834B5101834B5101834B5101834B6
:10070000B5101834B5101834B5101834B5101834A5
:10071000B5101834B5101834B5101834B510183495
:10072000B5101834B5101834B5101834B510183485
:10073000B5101834B5101834B5101834B510183475
:1007400000000000B5101834B510183400F002F89D
:1007500000F07BF814A696E8000CB244B344DA45E6
:1007600001D100F072F8BAE80F000FA696E8300049
:10077000A5EB040504EB0607AAEB0704A7F10107A4
:100780004FEA15154FEA3414A4F10104AC4201D329
:1007900000F05BF813F0010F18BFFB1A43F00103E0
:1007A00000F001F8DBE7184718680100386801001D
:1007B0000A444FF0000C10F8013B13F0070408BF87
:1007C00010F8014B1D1108BF10F8015B641E05D025
:1007D00010F8016B641E01F8016BF9D113F0080FDA
:1007E0001EBF10F8014BAD1C0C1B09D16D1E58BF6C
:1007F00001F801CBFAD505E014F8016B01F8016BA3
:100800006D1EF9D59142D6D37047000070470000A5
:100810000023002400250026103A28BF78C1FBD809
:10082000520728BF30C148BF0B6070471FB513F097
:10083000FDFC00F0DDFA04000020002113F0E0FCD4
:10084000401C60601FBD10B510BDDFF810D0FFF771
:10085000EDFF00F095FB00F08AFB0000F8FF1F346D
:1008600003B4FFF7F0FF03BC0AF00EFBEFF31080B8
:1008700072B6704780F310887047464A1368012BA0
:1008800004D04FF001031360434A1060434A1160E3
:1008900043484FF0805101607047EFF3108272B609
:1008A0003C48016851B34FF0000101603A480168CB
:1008B00091B1EFF309811EF0100F08BF21ED108BED
:1008C00021E9F00F4FF000041EF0100F08BF0124C3
:1008D00041F8044D0068016030490968096808C999
:1008E000B1E8F00F002B18BFB1EC108B81F3098831
:1008F0004EF0100E002B18BF2EF0100E82F3108851
:100900004EF0040E704725490860EFF3148222F080
:10091000040282F3148820494FF0000008601D494A
:100920004FF0010008601F481F49D0F8002041EA3D
:10093000020101601A484FF0805101601B480068B5
:10094000006800BF80F3088861B662B6BFF34F8FBE
:10095000BFF36F8F704700BFEFF308801EF0040FE6
:1009600001D0EFF3098020E9F00F40F804ED40F8E2
:1009700004ED1EF0040F02D080F3098801E080F33B
:10098000088800B50EF09EFA5DF804EB4EF0040EF8
:1009900070470000A8091C34E0071C34EC071C3425
:1009A00004ED00E020ED00E00000FFFF08ED00E0B6
:1009B0007047000010B500F01BFA001D10BD00BF0D
:1009C0004138010053EA020C00F069802DE9F04B38
:1009D0004FF00006002B1FBFB3FA83F503FA05F4AE
:1009E00024FA05F65E4012BF1643B2FA82F502FA07
:1009F00005F4C5F120051EBF22FA05FC44EA0C04EB
:100A0000203556EA044C4FEA144418BF641C4FF0DA
:100A100000084FF00009904271EB030C39D3002914
:100A200019BFB1FA81F701FA07F6B0FA80F700FAB8
:100A300007F6C7F120071EBF20FA07FC46EA0C069E
:100A40002037B6FBF4FCA7EB0507103F07F01F0BA0
:100A5000CBF120062CFA06F60CFA0BFB44BFB3468A
:100A60000026202FA4BF5E464FF0000B5BEA060C69
:100A700008BF4FF0010B19EB0B0948EB0608ABFB65
:100A8000027C06FB02CC0BFB03CCC01B71EB0C0100
:100A9000C1E70B46024641464846BDE8F08B13B518
:100AA000084318BF4FF0FF300146AFF30080BDE8A8
:100AB0001C40704770B5064600F09EF90468054674
:100AC00030460A22002100F0EAF92C6070BD2DE9C1
:100AD000F05F93460F4680460446002600F08CF9EE
:100AE000D0F80090824614F8015B2DB1FFF762FF49
:100AF0000068405DC007F6D12B2D02D02D2D1AD0F5
:100B0000641E0021CAF800105A463946204600F0FB
:100B100077F9014627B13868A04201D1C7F80080B3
:100B2000DAF80000022809D0CAF80090700505D54F
:100B30004842BDE8F09F46F48066E2E70846F8E7E1
:100B4000401ECAB210F8011F8A4202D00029F9D112
:100B50000020704740EA010310B59B070FD1042A1B
:100B60000DD310C808C9121F9C42F8D020BA19BA78
:100B7000884201D9012010BD4FF0FF3010BD1AB1DD
:100B8000D30703D0521C07E0002010BD10F8013B32
:100B900011F8014B1B1B07D110F8013B11F8014B59
:100BA0001B1B01D1921EF1D1184610BD40EA010372
:100BB000024630B59B0710D14FF0013400E008C267
:100BC00008C91D1B9D4315EAC41FF8D013F0FF018F
:100BD00002F8011B0DD01B0AF8E711F8013B002BAE
:100BE00002F8013B05D011F8013B002B02F8013B54
:100BF000F3D130BD10B5431C02E010F8011B71B1F8
:100C00008107FAD14FF0013202C88C1A8C4314EAE2
:100C1000C211F9D0C01A0A0603D0C01E10BDC01AF6
:100C200010BD0A0401D0801E10BD0902FCD0401E78
:100C300010BD40EA010370B59B072ED14FF001367D
:100C4000042A2AD308C810C99D1B9D43121F15EA08
:100C5000C61517D0D8B2E1B2401A50EA056110D1DA
:100C600098B2A1B2401A50EA05410AD123F07F4060
:100C700024F07F41401A50EA052102D1180EA0EB62
:100C8000146070BDA342DBD018BA21BA884201D9E2
:100C9000012070BD4FF0FF3070BD0AB9002070BD5B
:100CA00010F8013B11F8014B63B1A3420AD1521E67
:100CB00008D010F8013B11F8014B1BB1A34201D140
:100CC000521EEDD1181B70BD4FF0000200B5134647
:100CD00094469646203922BFA0E80C50A0E80C505C
:100CE000B1F12001BFF4F7AF090728BFA0E80C500D
:100CF00048BF0CC05DF804EB890028BF40F8042B06
:100D000008BF704748BF20F8022B11F0804F18BF72
:100D100000F8012B704710B5044610F0030F08BF10
:100D200011F0030F40F015804FF0013E121FC0F28A
:100D30000E8051F8043BA3EB0E0C2CEA030C1CEACA
:100D4000CE1C08BF40F8043BF0D0A1F1040102F131
:100D50000402521E08DB11F8013B00F8013B002B96
:100D6000F7D1114600F0D3F8204610BD0000000076
:100D700030B44FF0013C50F8042B51F8043BCCFA4E
:100D800052F4D51A20D1FCB950F8042B51F8043B89
:100D9000CCFA52F4D51A17D1B4B950F8042B51F843
:100DA000043BCCFA52F4D51A0ED16CB950F8042B8E
:100DB00051F8043BCCFA52F4D51A05D1002CDAD004
:100DC00030BC4FF00000704729BAB1FA81F111F040
:100DD0001801D1F120008440F2D1CA40CB4012F07A
:100DE000FF0213F0FF0330BCD01A704770470000B9
:100DF0000048704748031C340048704728031C34DF
:100E00002DE9F05F824615468B4600270AF1010462
:100E1000B9460078302801D09DB113E014F8010BD9
:100E20000127782803D0582801D045B10AE00DB138
:100E3000102D07D1002714F8010B102502E008251A
:100E400000E00A250026B0460EE005FB080005FB81
:100E500006F101271FFA80F801EB1046B6F5803F36
:100E600000D3B94614F8010B294600F072F80028A7
:100E7000EBDABBF1000F05D00FB1641E00E0544661
:100E8000CBF80040B9F1000F06D0FFF7B5FF022103
:100E90000160C81EBDE8F09F48EA0640FAE72DE968
:100EA000F04791460F4680460446002614F8015B41
:100EB0002DB1FFF77FFD0068405DC007F6D12B2DF7
:100EC00002D02D2D18D0641E4A4639462046FFF721
:100ED00097FF27B13968A14201D1C7F800804FF0D0
:100EE000020471050BD54042002803DDFFF784FFA3
:100EF0000460A007BDE8F08746F48066E4E70028B8
:100F0000F8DAFFF779FF04606FF00040F2E74FF086
:100F100000020429C0F0128010F0030C3FF4D6AE9A
:100F2000CCF1040CBCF1020F18BF00F8012BA8BFD4
:100F300020F8022BA1EB0C01FFF7C8BE5FEAC17CD1
:100F400024BF00F8012B00F8012B48BF00F8012B4B
:100F500070473A2800D2303820F02002412A01D3CD
:100F6000A2F13700884201D34FF0FF30704710B52F
:100F70000446AFF300802046BDE81040FFF770BC88
:100F800080B512F065F9002080BD000080B584B006
:100F90008DF80F00029100200190029820B9FFE720
:100FA0006FF00100019032E09DF80F2040F2000048
:100FB000C3F21C4050F82200942102FB01F340F2DE
:100FC000F042C3F21C42D0509DF80F0010FB0120EC
:100FD00008F040FA0198C8B9FFE79DF80F0098B9EA
:100FE000FFE79DF80F0040F2F042C3F21C4294214B
:100FF00010FB0120029903F085FE20B1FFE76FF09E
:1010000003000190FFE700E0FFE7FFE7FFE701983B
:1010100004B080BD83B0029001910092029890F8D4
:1010200020008007002811D5FFE7019830B1FFE7C5
:1010300001990020CFF601600860FFE7009820B119
:10104000FFE7009907200860FFE710E0019830B142
:10105000FFE701990020CFF601000860FFE7009844
:1010600020B1FFE7009905200860FFE7FFE703B024
:101070007047000084B0039002910192009303989E
:101080000068806C4FF6FF718843BDF8001008447B
:10109000039909688864039801684FF4FE40C860AA
:1010A000029803990968C86401980399096808655A
:1010B00004B07047FFE7FEE780B50EF0C9F90120E4
:1010C00000F060FB0EF0F2F980BD000080B50EF07C
:1010D000BFF9022000F056FB0EF0E8F980BD0000D9
:1010E00080B50EF0B5F9042000F04CFB0EF0DEF9EF
:1010F00080BD000080B50EF0ABF9082000F042FB87
:101100000EF0D4F980BD000080B50EF0A1F91020DA
:1011100000F038FB0EF0CAF980BD000072B6FFE7A0
:10112000FEE7000080B586B00490049820B1FFE788
:101130000498406F20B9FFE701208DF8170088E080
:10114000049890F854008DF80F00049800684069E6
:1011500000F4803002909DF80F00012809D0FFE7CD
:101160009DF80F00022863D1FFE7029800285FD0A6
:10117000FFE7049890F85400012852D1FFE7FFE7F9
:10118000049890F84C00012804D1FFE702208DF864
:1011900017005EE00499012081F84C00FFE7FFE7AB
:1011A0000499022081F854000499496F0873049946
:1011B000002088650499496F0861049801684869AE
:1011C00040F4BA4048610498406E38B1FFE7049893
:1011D0000168486940F400704861FFE70498006FB7
:1011E00038B1FFE704980168486940F4005048614D
:1011F000FFE70498406F006801A90022FFF70AFF8B
:1012000004980168406F40880004086004980168F1
:10121000406F00684FF6FC721040019A1043C86797
:10122000FFE704980168486940F0010048610CE05C
:10123000049940208865FFE70499002081F84C005C
:10124000FFE701208DF8170003E000208DF817005C
:10125000FFE79DF8170006B080BD000080B584B0A0
:10126000029000F0FFFC0190029820B9FFE70120F6
:101270008DF80F0079E0029890F8540002280DD004
:10128000FFE7029920208865FFE70299002081F896
:101290004C00FFE701208DF80F0066E0029801681E
:1012A000486940F0040048610299052081F8540023
:1012B000FFE70298006800698004002827D4FFE750
:1012C00000F0D0FC0199401A06281FD3FFE70299CD
:1012D000886D40F0100088650299032081F8540061
:1012E000029890F850000006002805D5FFE7029804
:1012F000416F01200873FFE7FFE70299002081F8A2
:101300004C00FFE701208DF80F002EE0D1E7029896
:101310000168486940F0020048610299042081F8A0
:101320005400029801684FF4FE40C8600299012001
:1013300081F85400029890F850000006002809D562
:10134000FFE70298416F01200873029801680020AE
:101350008864FFE7FFE70299002081F84C00FFE76F
:10136000FFE700208DF80F00FFE79DF80F0004B0A5
:1013700080BD000082B00090009820B9FFE70120F6
:101380008DF807001CE0009890F85400022807D060
:10139000FFE700992020886501208DF807000FE005
:1013A0000099042081F8540000980168486942F2CD
:1013B000040210434861FFE700208DF80700FFE7B3
:1013C0009DF8070002B0704780B586B00490039185
:1013D00002920193049820B9FFE701208DF81700CD
:1013E00057E0FFE7049890F84C00012804D1FFE78C
:1013F00002208DF817004CE00499012081F84C0080
:10140000FFE7FFE7049890F85400012830D1FFE788
:101410000499022081F854000499002088650498FA
:101420000399029A019BFFF725FE04980168486919
:1014300040F4BA4048610498406E38B1FFE7049820
:101440000168486940F400704861FFE70498006F44
:1014500038B1FFE704980168486940F400504861DA
:10146000FFE704980168486940F0010048610CE01A
:10147000049940208865FFE70499002081F84C001A
:10148000FFE701208DF8170003E000208DF817001A
:10149000FFE79DF8170006B080BD000080B591B051
:1014A00010900F9100200E90FFE70F980E99C84002
:1014B000002800F05E81FFE70F980E9A012191400D
:1014C00008400D900D98002800F04F81FFE70E981E
:1014D00020F0030045F26001C5F2026140580C9013
:1014E0000E9800F00300C1000F2000FA01F10C98E3
:1014F00008400C900C980B9010980021C5F20261E6
:10150000884203D1FFE700200A9096E0109840F24D
:101510000041C5F20261884203D1FFE70120099032
:1015200088E0109840F60001C5F20261884203D1BC
:10153000FFE7022008907AE0109840F60041C5F2DB
:101540000261884203D1FFE7032007906CE0109806
:1015500041F20001C5F20261884203D1FFE7042095
:1015600006905EE0109841F20041C5F202618842A7
:1015700003D1FFE70520059050E0109841F60001E7
:10158000C5F20261884203D1FFE70620049042E0E1
:10159000109841F60041C5F20261884203D1FFE78D
:1015A0000720039034E0109843F20041C5F2026135
:1015B000884203D1FFE70820029026E0109843F606
:1015C0000001C5F20261884203D1FFE709200190C2
:1015D00018E0109843F60041C5F20261884203D139
:1015E000FFE70A2000900AE0109944F20002C5F2D9
:1015F00002621020914208BF0B200090FFE7009884
:101600000190FFE701980290FFE702980390FFE73F
:1016100003980490FFE704980590FFE7059806906B
:10162000FFE706980790FFE707980890FFE70898FC
:101630000990FFE709980A90FFE70B980A990E9A1C
:1016400002F00302D2009140884233D1FFE70D9AA5
:1016500045F28001C5F202610868904308600D9A66
:1016600045F28401C5F202610868904308600D9A52
:1016700045F20001C5F202610868904308600D9AC6
:1016800045F20401C5F202610868904308600E98B3
:1016900000F00300C1000F2088400C900C9B0E98B6
:1016A00020F0030145F26002C5F2026288589843B7
:1016B0008850FFE70E984000032202FA00F31099C9
:1016C000086818430860DDF838C00CF00700810096
:1016D0000F2000FA01FE109B6FF0030101EA5C0C81
:1016E0009C44DCF8203023EA0E03CCF820300E9B1B
:1016F0005B0002FA03FEDDF840C0DCF8083023EAA4
:101700000E03CCF80830DDF838C0012303FA0CFED4
:10171000DDF840C0DCF8043023EA0E03CCF80430D6
:101720000E9B5B0002FA03FC109BDA6822EA0C02B3
:10173000DA600E9B03F00702920000FA02FC109A96
:1017400001EA530313441A6C22EA0C021A640E9B3A
:1017500003F00702920000FA02F2109801EA530126
:101760000144886C90438864FFE70E9801300E9026
:101770009BE611B080BD000081B0ADF8020001B061
:101780007047000080B582B0ADF8060045F20C004D
:10179000C5F202600068BDF8061008420CD0FFE7F1
:1017A000BDF8060045F20C01C5F202610860BDF803
:1017B000060000F019F8FFE745F21000C5F20260DC
:1017C0000068BDF8061008420CD0FFE7BDF806001F
:1017D00045F21001C5F202610860BDF80600FFF78E
:1017E000CBFFFFE702B080BD81B0ADF8020001B0D1
:1017F0007047000090B00F900E9100200D90FFE711
:101800000E9800680D99C840002800F0FA81FFE7A3
:101810000E9800680D9A0121914008400C900C9898
:10182000002800F0EA81FFE70E98406800F003000E
:10183000012807D0FFE70E98406800F00300022857
:101840002FD1FFE70F9880680B900D98410003207F
:1018500000FA01F10B9888430B900E98C0680D991F
:10186000490000FA01F10B9808430B900B980F996F
:1018700088600F9840680B900D99012000FA01F1E3
:101880000B9888430B900E984068C0F300100D9998
:1018900000FA01F10B9808430B900B980F994860E0
:1018A000FFE70E98406800F0030003280CD1FFE723
:1018B0000E98406800F0030003281DD1FFE70E9842
:1018C0008068012818D0FFE70F98C0680B900D982A
:1018D0004100032000FA01F10B9888430B900E9809
:1018E00080680D99490000FA01F10B9808430B90AC
:1018F0000B980F99C860FFE70E98406800F003004E
:10190000022826D1FFE70F980D996FF0030202EA33
:1019100051010844006A0B900D9800F00700810007
:101920000F2000FA01F10B9888430B900E98006984
:101930000D9901F00701890000FA01F10B980843A5
:101940000B900B980F990D9B02EA53021144086209
:10195000FFE70F9800680B900D984100032000FAF4
:1019600001F10B9888430B900E98406800F003003B
:101970000D99490000FA01F10B9808430B900B9860
:101980000F9908600E9880798007002800F0348154
:10199000FFE70D9820F0030045F26001C5F20261F7
:1019A00040580B900D9800F00300C1000F2000FA82
:1019B00001F10B9888430B900F980021C5F202614A
:1019C000884203D1FFE700200A9096E00F9840F28A
:1019D0000041C5F20261884203D1FFE7012009906E
:1019E00088E00F9840F60001C5F20261884203D1F9
:1019F000FFE7022008907AE00F9840F60041C5F218
:101A00000261884203D1FFE7032007906CE00F9842
:101A100041F20001C5F20261884203D1FFE70420D0
:101A200006905EE00F9841F20041C5F202618842E3
:101A300003D1FFE70520059050E00F9841F6000123
:101A4000C5F20261884203D1FFE70620049042E01C
:101A50000F9841F60041C5F20261884203D1FFE7C9
:101A60000720039034E00F9843F20041C5F2026171
:101A7000884203D1FFE70820029026E00F9843F642
:101A80000001C5F20261884203D1FFE709200190FD
:101A900018E00F9843F60041C5F20261884203D175
:101AA000FFE70A2000900AE00F9944F20002C5F215
:101AB00002621020914208BF0B200090FFE70098BF
:101AC0000190FFE701980290FFE702980390FFE77B
:101AD00003980490FFE704980590FFE705980690A7
:101AE000FFE706980790FFE707980890FFE7089838
:101AF0000990FFE709980A90FFE70A980D9901F00D
:101B00000301C90000FA01F10B9808430B900B98F0
:101B10000D9921F0030145F26002C5F2026288507E
:101B200045F28000C5F2026000680B900C990B989A
:101B300088430B900E988079C00728B1FFE70C9975
:101B40000B9808430B90FFE70B9845F28001C5F214
:101B50000261086045F28400C5F2026000680B90E3
:101B60000C990B9888430B900E9880798007002879
:101B700005D5FFE70C990B9808430B90FFE70B98EE
:101B800045F28401C5F20261086045F20000C5F229
:101B9000026000680B900C990B9888430B900E988C
:101BA0008079C006002805D5FFE70C990B980843FB
:101BB0000B90FFE70B9845F20001C5F20261086047
:101BC00045F20400C5F2026000680B900C990B9876
:101BD00088430B900E9880798006002805D5FFE792
:101BE0000C990B9808430B90FFE70B9845F2040102
:101BF000C5F202610860FFE7FFE70D9801300D9024
:101C0000FEE510B07047000082B00190ADF8021000
:101C100001980069BDF80210084204D0FFE70120D6
:101C20008DF8010003E000208DF80100FFE79DF82A
:101C3000010002B07047000082B00190ADF80210C0
:101C40008DF801209DF8010028B1FFE7BDF80200E2
:101C50000199886104E0BDF8020001998862FFE7FC
:101C600002B0704780B54EF21000CEF2000000685E
:101C7000C003002803D5FFE700F008F8FFE740F6AF
:101C8000D420C3F21C40006880BD000040F21C104C
:101C9000C3F21C40026840F6D421C3F21C4108681C
:101CA000104408607047000080B582B0032000F047
:101CB00067F806F0D1FE0F2000F010F820B1FFE722
:101CC00001208DF8070005E000F010F800208DF8E5
:101CD0000700FFE79DF8070002B080BD80B582B025
:101CE00001900DF023FB002002B080BD80B500F014
:101CF0007FF800F087F800F08FF802F0A3FF40F2C1
:101D00008831C3F21C414FF4E13008600020486084
:101D1000088148818881FFF739F908B1FFE7FFE7BB
:101D200080BD000080B582B0ADF80600BDF90600A8
:101D300007F0A8FE02B080BD80B582B0ADF8060005
:101D4000BDF9060007F0BAFE02B080BD80B586B0CE
:101D5000ADF816000491039207F0C8FE00F00700EA
:101D60000290BDF91600019002980499039A02F0BE
:101D7000F7FF0146019807F0E3FE06B080BD0000C2
:101D800080B582B00190019807F0FCFE02B080BDE2
:101D900080B584B0029044F60001C5F20261086883
:101DA00020F00400029A10430860FFF75BFF0190E7
:101DB000FFE744F62000C5F20260006880030028B7
:101DC0000DD4FFE7FFF74EFF0199401AB0F57A7F77
:101DD00004D9FFE701208DF80F0004E0E9E70020B7
:101DE0008DF80F00FFE79DF80F0004B080BD0000E4
:101DF00044F63C01C5F20261086840F48070086056
:101E00007047000044F63C01C5F20261086840F4E6
:101E1000007008607047000044F63401C5F20261AA
:101E2000086840F4807008607047000010B58AB000
:101E30000020099002F0D6FDA0B3FFE702F082FD7A
:101E400078B3FFE702F0AEFD04F036FE0790079886
:101E500030B3FFE702F086FD08900898F8B1FFE77D
:101E6000079806900898039002F084FD049002F011
:101E700071FD059002F086FD029002F08BFDDDF809
:101E800008C00399049A059B04460698EE46CEF8CE
:101E90000440CEF800C002F099FF0990FFE7FFE789
:101EA000FFE70BE002F08EFD30B1FFE702F07AFDB4
:101EB00004F002FE099000E0FFE7FFE709980AB08E
:101EC00010BD000010B58AB00020099002F0EAFDB4
:101ED000A0B3FFE702F096FD78B3FFE702F0C2FD82
:101EE00004F0EAFD0790079830B3FFE702F09AFD8F
:101EF00008900898F8B1FFE70798069008980390B3
:101F000002F098FD049002F085FD059002F09AFD24
:101F1000029002F09FFDDDF808C00399049A059B2A
:101F200004460698EE46CEF80440CEF800C002F013
:101F30004DFF0990FFE7FFE7FFE70BE002F0A2FD8E
:101F400030B1FFE702F08EFD04F0B6FD099000E02D
:101F5000FFE7FFE709980AB010BD000010B58AB08E
:101F60000020099002F0FEFDA0B3FFE702F0AAFDF9
:101F700078B3FFE702F0D6FD04F09EFD07900798C6
:101F800030B3FFE702F0AEFD08900898F8B1FFE724
:101F9000079806900898039002F0ACFD049002F0B8
:101FA00099FD059002F0AEFD029002F0B3FDDDF860
:101FB00008C00399049A059B04460698EE46CEF89D
:101FC0000440CEF800C002F001FF0990FFE7FFE7F0
:101FD000FFE70BE002F0B6FD30B1FFE702F0A2FD33
:101FE00004F06AFD099000E0FFE7FFE709980AB0F6
:101FF00010BD000010B58AB00020099002F012FE5A
:10200000A0B3FFE702F0BEFD78B3FFE702F0EAFD00
:1020100004F052FD0790079830B3FFE702F0C2FDCD
:1020200008900898F8B1FFE7079806900898039081
:1020300002F0C0FD049002F0ADFD059002F0C2FD7B
:10204000029002F0C7FDDDF808C00399049A059BD1
:1020500004460698EE46CEF80440CEF800C002F0E2
:10206000B5FE0990FFE7FFE7FFE70BE002F0CAFDCE
:1020700030B1FFE702F0B6FD04F01EFD099000E06C
:10208000FFE7FFE709980AB010BD000080B586B0F1
:102090000591049000200390049801900599029105
:1020A00080F001000843002800F0D581FFE7029985
:1020B000019880F002000843002800F0D181FFE77A
:1020C0000299019880F004000843002800F0D181B3
:1020D000FFE70299019880F008000843002800F00B
:1020E000C481FFE70299019880F01000084300289E
:1020F00000F0C481FFE70299019880F020000843B6
:10210000002800F0C181FFE70299019880F4007077
:102110000843002800F0BE81FFE70299019880F48F
:1021200080600843002800F0BA81FFE70299019817
:1021300080F400600843002800F0B681FFE70299B0
:10214000019880F480500843002800F0B281FFE736
:102150000299019880F400500843002800F0B081F3
:10216000FFE70299019880F480400843002800F0BE
:10217000AF81FFE70299019880F4004008430028EE
:1021800000F0AE81FFE70299019880F480300843A7
:10219000002800F0AD81FFE70299019880F400303B
:1021A0000843002800F0AC81FFE70299019880F411
:1021B00080200843002800F0AB81FFE702990198D6
:1021C00080F400200843002800F0AA81FFE702996C
:1021D000019880F480100843002800F0A981FFE7EF
:1021E0000299019880F400100843002800F0A881AB
:1021F000FFE70299019880F480000843002800F06E
:10220000A781FFE70299019880F4000008430028A5
:1022100000F0A681FFE70299019880F080700843E2
:10222000002800F0A381FFE70299019880F0007078
:102230000843002800F0A081FFE70299019880F090
:1022400080600843002800F09D81FFE70299019813
:1022500080F000600843002800F09981FFE70299B0
:10226000019880F080500843002800F09481FFE737
:102270000299019880F000500843002800F09381F3
:10228000FFE70299019880F080400843002800F0A1
:102290009281FFE70299019880F0004008430028EE
:1022A00000F09081FFE70198029981F00101084355
:1022B000002800F08F81FFE70198029981F0020168
:1022C0000843002800F08B81FFE70198029981F014
:1022D00004010843002800F08A81FFE70198029971
:1022E00081F008010843002800F08981FFE7019888
:1022F000029981F010010843002800F08881FFE76F
:102300000198029981F020010843002800F087819C
:10231000FFE70198029981F040010843002800F08E
:102320008681FFE70198029981F4807108430028B3
:1023300000F08581FFE70198029981F4007108435C
:10234000002800F08381FFE70198029981F4806101
:102350000843002800F08281FFE70198029981F488
:1023600000610843002800F08181FFE7019802998D
:1023700081F480510843002800F08081FFE7019834
:10238000029981F400510843002800F07F81FFE7A3
:102390000198029981F480410843002800F07E8171
:1023A000FFE70198029981F400410843002800F0FA
:1023B0007D81FFE70198029981F48031084300286C
:1023C00000F07C81FFE70198029981F40031084315
:1023D000002800F07A81FFE70198029981F48021BA
:1023E0000843002800F07981FFE70198029981F401
:1023F00000210843002800F07881FFE70198029946
:1024000081F480110843002800F07781FFE70198EC
:10241000029981F400110843002800F07681FFE75B
:102420000198029981F480010843002800F0758129
:10243000FFE70198029981F400010843002800F0A9
:102440007381FFE70198029981F0807108430028A9
:1024500000F0728178E1702002F0FCFC039074E1DE
:10246000072002F0EDFD03906FE103F05BF80390AD
:102470006BE1072002F0BAFE039066E14FF44010D2
:1024800003F09AF8039060E14FF4405003F014F920
:1024900003905AE1032003F089F9039055E10320EA
:1024A00003F0FEF9039050E1302003F06BFA039043
:1024B0004BE10C20C0F2007003F022FB039044E1DA
:1024C00040F20C40C0F2007003F01AFB03903CE1B4
:1024D00040F60C00C0F2007003F012FB039034E1F0
:1024E00040F60C40C0F2007003F00AFB03902CE1B0
:1024F00041F20C00C0F2007003F08EFC039024E166
:1025000041F20C40C0F2007003F086FC03901CE125
:1025100040F62C00C0F2007003F09EFD039014E121
:1025200040F62C40C0F2007003F096FD03900CE1E1
:1025300041F22C00C0F2007003F08EFD039004E124
:1025400041F22C40C0F2007003F086FD0390FCE0E5
:1025500041F62C00C0F2007003F07EFD0390F4E021
:102560004FF4E06003F006FF0390EEE04FF04070A0
:1025700003F0EAFF0390E8E04FF4E02004F064F891
:102580000390E2E0302004F0E9FA0390DDE004F08B
:102590005FFB0390D9E041F21840C0F2007004F0F4
:1025A000A1FB0390D1E041F61800C0F2007004F0E6
:1025B00099FB0390C9E01C20C0F2003004F0E4FC59
:1025C0000390C2E040F21C40C0F2003004F0DCFC9A
:1025D0000390BAE0072004F0B3FD0390B5E040F2A9
:1025E0002040C0F2007004F079FE0390ADE040F6A8
:1025F0002000C0F2007004F071FE0390A5E040F6E8
:102600002040C0F2007004F069FE03909DE041F2AA
:102610002000C0F2007004F061FE039095E041F2EA
:102620002040C0F2007004F059FE03908DE041F6A6
:102630002000C0F2007004F051FE039085E03020CD
:10264000C0F2007005F0E8FA03907EE040F23040FE
:10265000C0F2007005F0E0FA039076E040F630003A
:10266000C0F2007005F0D8FA03906EE040F63040FA
:10267000C0F2007005F0CEF8039066E041F2300041
:10268000C0F2007005F0C6F803905EE041F2304001
:10269000C0F2007005F0C0FA039056E041F6300039
:1026A000C0F2007005F0B6F803904EE041F63040FD
:1026B000C0F2007005F0AEF8039046E03420C0F29E
:1026C000007005F0A7F803903FE040F23440C0F2FC
:1026D000007005F0A1FA039037E041F21400C0F257
:1026E000001004F0A5F803902FE040F61440C0F26B
:1026F000003004F0F1F8039027E041F61400C0F236
:10270000001004F095F803901FE041F21440C0F26D
:10271000003004F0E1F8039017E01420C0F200301C
:1027200005F07CFC039010E040F21440C0F2003051
:1027300005F074FC039008E040F61400C0F200308D
:1027400005F06CFC039000E0FFE7039806B080BD45
:1027500080B584B00290029820B9FFE701208DF87F
:102760000F006CE2029800780007002819D5FFE7F7
:102770000298006948F22401C5F20261096801F07B
:10278000070188420CD9FFE748F22401C5F2026133
:10279000086820F00700029A126910430860FFE7FA
:1027A000FFE702980078C006002819D5FFE70298D5
:1027B000406948F22401C5F20261096801F0700124
:1027C00088420CD9FFE748F22401C5F2026108688B
:1027D00020F07000029A526910430860FFE7FFE79B
:1027E000029800788006002819D5FFE702988069D2
:1027F00048F22401C5F20261096801F4E04188420F
:102800000CD9FFE748F22401C5F20261086820F400
:10281000E040029A926910430860FFE7FFE70298E0
:1028200000784006002819D5FFE70298C06948F2F1
:102830002401C5F20261096801F4E02188420CD943
:10284000FFE748F22401C5F20261086820F4E020A5
:10285000029AD26910430860FFE7FFE70298007808
:102860004007002819D5FFE70298C06848F2240104
:10287000C5F20261096801F4E00188420CD9FFE762
:1028800048F22401C5F20261086820F4E000029ACF
:10289000D26810430860FFE7FFE702980078C0079E
:1028A00000287AD0FFE702984068B0F5003F09D1D0
:1028B000FFE701F073FD20B9FFE701208DF80F005D
:1028C000BDE13DE002984068B0F5403F1ED1FFE712
:1028D00001F0DAFE0299096A05F018FD012804D01A
:1028E000FFE701208DF80F00A9E10299086A4A6A02
:1028F0000021CFF6FF7101EB0241084348F2C40109
:10290000C5F20261086001F0ABFE18E00298406871
:10291000B0F5803F09D1FFE701F0EEFF20B9FFE7F6
:1029200001208DF80F008AE108E001F06FFD20B969
:10293000FFE701208DF80F0081E1FFE7FFE7FFE7E8
:1029400048F22001C5F20261086820F44030029A82
:10295000526810430860FFF785F90190FFE701F026
:1029600025FC02994968B0EB011F0ED0FFE7FFF785
:1029700079F90199401A41F28931884204D3FFE77D
:1029800003208DF80F005AE1E9E700F0D5F940F295
:102990000801C3F21C410860FFE702980078800735
:1029A000002840F1A780FFE702988068B0F1007F1F
:1029B00009D1FFE701F0F2FC20B9FFE701208DF813
:1029C0000F003CE170E002988068B0F1407F53D185
:1029D000FFE701F089FE0299896A05F097FC01285A
:1029E00004D0FFE701208DF80F0028E101F0D8FEA8
:1029F0000299096B05F08AFC012804D0FFE7012049
:102A00008DF80F001BE101F043FD0299896B05F081
:102A10007DFC012804D0FFE701208DF80F000EE1B6
:102A20000299886ACA6A0021CFF6FF7101EB02425F
:102A3000104348F2C802C5F202621060029A106B9D
:102A4000526B01EB0242104348F2D802C5F2026217
:102A50001060029A906BD26B01EB0241084348F27E
:102A6000EC01C5F20261086048F64021C5F202613E
:102A700040F22240086016E00298806848B9FFE7FB
:102A800001F0C4FC20B9FFE701208DF80F00D6E06B
:102A900008E001F031FF20B9FFE701208DF80F00B9
:102AA000CDE0FFE7FFE7FFE748F22001C5F2026152
:102AB000086820F04070029A926810430860FFF79F
:102AC000D1F80190FFE701F031FC02998968B0EB81
:102AD000011F0ED0FFE7FFF7C5F80199401A41F238
:102AE0008931884204D3FFE703208DF80F00A6E068
:102AF000E9E7FFE7029800784007002819D5FFE7CB
:102B00000298C06848F22401C5F20261096801F424
:102B1000E00188420CD2FFE748F22401C5F20261CD
:102B2000086820F4E000029AD26810430860FFE7CA
:102B3000FFE7029800780007002819D5FFE7029800
:102B4000006948F22401C5F20261096801F0070139
:102B500088420CD2FFE748F22401C5F202610868FE
:102B600020F00700029A126910430860FFE7FFE7B0
:102B700002980078C006002819D5FFE7029840693E
:102B800048F22401C5F20261096801F0700188422F
:102B90000CD2FFE748F22401C5F20261086820F078
:102BA0007000029A526910430860FFE7FFE702983D
:102BB00000788006002819D5FFE70298806948F25E
:102BC0002401C5F20261096801F4E04188420CD297
:102BD000FFE748F22401C5F20261086820F4E040F2
:102BE000029A926910430860FFE7FFE702980078B5
:102BF0004006002819D5FFE70298C06948F2240171
:102C0000C5F20261096801F4E02188420CD2FFE7B5
:102C100048F22401C5F20261086820F4E020029A1B
:102C2000D26910430860FFE7FFE740F22430C3F2A7
:102C30001C400068FFF752F88DF80F00FFE79DF881
:102C40000F0004B080BD000082B0019001997F2088
:102C5000086048F22000C5F2026000680090009809
:102C600000F44010000901994860009800F04050BD
:102C700000090199886048F22400C5F202600068EA
:102C80000090009800F4E0000199C860009800F0FE
:102C9000070001990861009800F0700001994861EF
:102CA000009800F4E04001998861009800F4E02069
:102CB0000199C86148F2C400C5F202600068009042
:102CC000009800F04050019908629DF80200013020
:102CD0000199486248F2C800C5F20260006800909D
:102CE000009800F04050019988629DF80200013080
:102CF0000199C86248F2D800C5F2026000680090ED
:102D0000009800F04050019908639DF802000130DE
:102D10000199486348F2EC00C5F202600068009037
:102D2000009800F04050019988639DF8020001303E
:102D30000199C86302B0704780B584B00020039049
:102D400001F034FA0146019178B1FFE70198B0F53E
:102D5000801F14D0FFE70198B0F5001F23D0FFE7D4
:102D60000198B0F5401F24D061E001F03FFBC1099C
:102D700049F20000C0F2D030C840039058E048F259
:102D80004400C5F20260006800F4007140F60010D3
:102D9000C0F23D00B1F5007F04BF42F20040C0F236
:102DA000F400039044E043F20060C0F26E10039020
:102DB0003EE001F05DFC029001F066FC01460091EE
:102DC00078B1FFE70098B0F1805F13D0FFE700987B
:102DD000B0F1005F17D0FFE70098B0F1405F1BD063
:102DE00023E0FFF723F8039003980299B0FBF1F07A
:102DF00003901BE0FFF766F8039003980299B0FB7D
:102E0000F1F0039012E0FFF7A9F8039003980299FC
:102E1000B0FBF1F0039009E0FFF7ECF803900398A2
:102E20000299B0FBF1F0039000E0FFE700E0FFE75C
:102E3000039804B080BD000080B582B001F054FC5E
:102E4000019001F045FC0146019805F0E3F902B05C
:102E500080BD000080B5A2B02090209828B9FFE77F
:102E600001208DF8870000F085BC01F09FF91D90CE
:102E700001F05CFA1E9001F09DFD1C9001F0FAFD3E
:102E80001B9001F057FE1A9001F0B4FE199048F221
:102E90000400C5F202600068189020980078C0070E
:102EA000002800F0E080FFE71D98B0F5001F34D047
:102EB000FFE71E98B0F1005F2FD0FFE71C98B0F13C
:102EC000005F07D1FFE7189800F48070B0F5807FAD
:102ED00023D0FFE71B98B0F1005F07D1FFE71898F8
:102EE00000F40070B0F5007F17D0FFE71A98B0F13A
:102EF000005F07D1FFE7189800F48060B0F5806F9D
:102F00000BD0FFE71998B0F1005F10D1FFE79DF8F3
:102F10006100000700280AD5FFE72098406828B91B
:102F2000FFE701208DF8870000F024BC9AE0FFE75E
:102F300020984068102807D1FFE748F60001C5F245
:102F400002611020086056E02098406878B9FFE7D9
:102F500049F20001C5F202611020086048F25401F4
:102F6000C5F20261086820F4C030086042E0209891
:102F7000406848F21001884213D1FFE748F254013B
:102F8000C5F20261086840F400400860086820F457
:102F90008030086048F60001C5F202611020086028
:102FA00027E02098406848F21001C0F201018842F1
:102FB0000FD1FFE748F25401C5F20261086840F4FE
:102FC000C030086048F60001C5F2026110200860B8
:102FD0000EE049F20001C5F202611020086048F2DB
:102FE0005401C5F20261086820F4C0300860FFE7B0
:102FF000FFE7FFE7FFE7FFE7FEF734FE1F902098AB
:103000004068B8B1FFE7FFE748F20400C5F202608C
:103010000068C00600280CD4FFE7FEF723FE1F99C6
:10302000401A652804D3FFE703208DF88700A1E349
:10303000EAE716E0FFE748F20400C5F20260006824
:10304000C00600280CD5FFE7FEF70CFE1F99401ABA
:10305000652804D3FFE703208DF887008AE3EAE7B9
:10306000FFE7FFE7FFE720980078800700287BD57F
:10307000FFE71D9850B3FFE71E9838B3FFE71C9891
:1030800038B9FFE7189800F48070B0F5807F1DD044
:10309000FFE71B9838B9FFE7189800F40070B0F507
:1030A000007F13D0FFE71A9838B9FFE7189800F4AB
:1030B0008060B0F5806F09D0FFE71998C0B9FFE7CD
:1030C0009DF861000007002812D5FFE72098C0682E
:1030D00020B9FFE701208DF887004BE320980069B5
:1030E00001F0ACF92098406901F098F9FFE73AE067
:1030F0002098C068F8B1FFE701F068F9FEF7B2FD6B
:103100001F90FFE701F082F960B9FFE7FEF7AAFD23
:103110001F99401A022804D3FFE703208DF8870087
:1031200028E3EFE72098006901F088F920984069CA
:1031300001F074F916E001F041F9FEF793FD1F90DC
:10314000FFE701F063F960B1FFE7FEF78BFD1F9920
:10315000401A022804D3FFE703208DF8870009E313
:10316000EFE7FFE7FFE7FFE720980078C0060028B9
:1031700040F18480FFE71D98B0F5801F34D0FFE751
:103180001E98B0F1805F2FD0FFE71C98B0F1805FF0
:1031900007D1FFE7189800F48070B0F5807F23D046
:1031A000FFE71B98B0F1805F07D1FFE7189800F4A4
:1031B0000070B0F5007F17D0FFE71A98B0F1805F7C
:1031C00007D1FFE7189800F48060B0F5806F0BD04E
:1031D000FFE71998B0F1805F14D1FFE79DF8610017
:1031E000000700280ED5FFE72098C06920B9FFE747
:1031F00001208DF88700BDE22098406A01F084FB31
:10320000FFE73AE02098C069F8B1FFE72098006A2C
:1032100001F08AFB01F058FBFEF724FD1F90FFE749
:1032200001F06AFB60B9FFE7FEF71CFD1F99401A29
:10323000022804D3FFE703208DF887009AE2EFE726
:103240002098406A01F060FB16E001F035FBFEF7C4
:1032500009FD1F90FFE701F04FFB60B1FFE7FEF7AC
:1032600001FD1F99401A022804D3FFE703208DF8BF
:1032700087007FE2EFE7FFE7FFE7FFE720980078AE
:103280000007002833D5FFE720988069B8B1FFE731
:1032900001F0FAFAFEF7E6FC1F90FFE701F004FBED
:1032A00060B9FFE7FEF7DEFC1F99401A022804D33D
:1032B000FFE703208DF887005CE2EFE716E001F0FE
:1032C000DBFAFEF7CFFC1F90FFE701F0EDFA60B1EB
:1032D000FFE7FEF7C7FC1F99401A022804D3FFE757
:1032E00003208DF8870045E2EFE7FFE7FFE720982E
:1032F00000784007002840F1A580FFE7FFE720980D
:103300008068022807D1FFE748F60001C5F2026194
:103310000220086062E02098806898B9FFE749F2CF
:103320000001C5F202610220086048F24001C5F2C6
:103330000261086820F480300860086820F40040CA
:1033400008604AE02098806848F20201884213D160
:10335000FFE748F24001C5F20261086840F400400E
:103360000860086820F48030086048F60001C5F263
:103370000261022008602FE02098806848F2020174
:10338000C0F20101884213D1FFE748F24001C5F2C3
:103390000261086840F400400860086840F480302A
:1033A000086048F60001C5F202610220086012E0E0
:1033B00049F20001C5F202610220086048F24001B2
:1033C000C5F20261086820F400400860086820F433
:1033D00080300860FFE7FFE7FFE7FFE7FFE720989F
:1033E0008068B8B1FFE7FEF73DFC1F90FFE701F0F2
:1033F0003BFA70B9FFE7FEF735FC1F99401A41F21E
:103400008931884204D3FFE703208DF88700B1E1BA
:10341000EDE716E0FEF726FC1F90FFE701F024FA27
:1034200070B1FFE7FEF71EFC1F99401A41F2893187
:10343000884204D3FFE703208DF887009AE1EDE787
:10344000FFE7FFE72098806A00285AD0FFE720981E
:1034500000F12801002005F067F9179001F0CAFA81
:1034600016901798012837D1FFE701F00DF9159054
:1034700001F03AF9149001F093F9139001F008F873
:1034800012901D98B0F5401F07D1FFE7159820B99D
:10349000FFE701208DF887006CE11E98B0F1405FD6
:1034A0000DD1FFE7149830B1FFE7139818B1FFE78B
:1034B000129820B9FFE701208DF887005AE1209883
:1034C00000F12801002004F0BFFF20B1FFE7012038
:1034D0008DF887004EE113E02098806A02280DD114
:1034E000FFE7169850B9FFE7002005F0E9F820B192
:1034F000FFE701208DF887003CE100E0FFE7FFE7F0
:10350000FFE72098406C002862D0FFE7209800F188
:103510004401012005F008F9119001F0CBFA109058
:10352000119801283FD1FFE701F0AEF80F9001F0AC
:10353000DBF80E9001F034F90D9000F0A9FF0C902B
:103540001D98B0F5401F09D1FFE70F98B0F1805FDB
:1035500004D1FFE701208DF887000BE11E98B0F140
:10356000405F13D1FFE70E98B0F1805F0AD0FFE70C
:103570000D98B0F1805F05D0FFE70C98B0F1805F47
:1035800004D1FFE701208DF88700F3E0209800F1D7
:103590004401012004F058FF20B1FFE701208DF81D
:1035A0008700E7E013E02098406C02280DD1FFE788
:1035B000109850B9FFE7012005F082F820B1FFE72D
:1035C00001208DF88700D5E000E0FFE7FFE7FFE787
:1035D0002098006E002862D0FFE7209800F160017B
:1035E000022005F0A1F80B9001F004FA0A900B9864
:1035F00001283FD1FFE701F047F8099001F074F886
:10360000089001F0CDF8079000F042FF06901D9859
:10361000B0F5401F09D1FFE70998B0F1005F04D170
:10362000FFE701208DF88700A4E01E98B0F1405F0D
:1036300013D1FFE70898B0F1005F0AD0FFE70798C1
:10364000B0F1005F05D0FFE70698B0F1005F04D14C
:10365000FFE701208DF887008CE0209800F16001E1
:10366000022004F0F1FE20B1FFE701208DF8870071
:1036700080E013E02098006E02280DD1FFE70A9841
:1036800050B9FFE7022005F01BF820B1FFE7012049
:103690008DF887006EE000E0FFE7FFE7FFE7209886
:1036A000C06F002862D0FFE7209800F17C01032062
:1036B00005F03AF8059001F0BDFA0490059801284C
:1036C0003FD1FFE700F0E0FF039001F00DF802901A
:1036D00001F066F8019000F0DBFE00901D98B0F557
:1036E000401F09D1FFE70398B0F1405F04D1FFE725
:1036F00001208DF887003DE01E98B0F1405F13D1A6
:10370000FFE70298B0F1405F0AD0FFE70198B0F1FF
:10371000405F05D0FFE70098B0F1405F04D1FFE7BC
:1037200001208DF8870025E0209800F17C0103201E
:1037300004F08AFE20B1FFE701208DF8870019E030
:1037400013E02098C06F02280DD1FFE7049850B90C
:10375000FFE7032004F0B4FF20B1FFE701208DF85C
:10376000870007E000E0FFE7FFE7FFE700208DF8B4
:103770008700FFE79DF8870022B080BD80B582B04A
:103780000190019805F0ACF802B080BD82B00190C4
:10379000ADF8021002B0704781B0009001B07047E0
:1037A00081B0009001B0704781B0009001B07047C7
:1037B00080B584B00290029820B9FFE701208DF80F
:1037C0000F002FE002992420C1F8880002980168B8
:1037D000086820F00100086002980168002001904C
:1037E000086002990968486002990968886002982F
:1037F00000F03EFB01980299C1F890000299C1F8CF
:1038000088000299C1F88C000299C866029908677D
:10381000FFE70299002081F88400FFE700208DF87F
:103820000F00FFE79DF80F0004B080BD81B000904D
:1038300001B0704780B590B00F900F980068C069D4
:103840000E900F98006800680D900F9800688068CF
:103850000C900E9840F60F0108400B900B98E0B9C1
:10386000FFE79DF838008006002815D5FFE79DF892
:1038700034008006002806D4FFE79DF83300C00618
:10388000002809D5FFE70F98406F20B1FFE70F9898
:10389000416F8847FFE792E2FFE70B98002800F0AE
:1038A0000C81FFE70C980121C1F20001084209D107
:1038B000FFE70D9840F22011C0F20041084200F0ED
:1038C000FC80FFE79DF83800C00788B1FFE79DF84E
:1038D0003500C00760B1FFE70F980168012008625A
:1038E0000F99D1F8900040F00100C1F89000FFE777
:1038F0009DF838008007002811D5FFE79DF83000BB
:10390000C00760B1FFE70F980168022008620F99B5
:10391000D1F8900040F00400C1F89000FFE79DF856
:1039200038004007002811D5FFE79DF83000C00798
:1039300060B1FFE70F980168042008620F99D1F881
:10394000900040F00200C1F89000FFE79DF83800B9
:103950000007002819D5FFE79DF8340080060028ED
:1039600007D4FFE70C980121C1F2000108420CD0F6
:10397000FFE70F980168082008620F99D1F89000BE
:1039800040F00800C1F89000FFE79DF839000007FB
:10399000002813D5FFE79DF83700400700280DD514
:1039A000FFE70F9801684FF4006008620F99D1F8A3
:1039B000900040F02000C1F89000FFE70F98D0F889
:1039C0009000002878D0FFE79DF838008006002896
:1039D00015D5FFE79DF834008006002806D4FFE7E0
:1039E0009DF83300C006002809D5FFE70F98406F07
:1039F00020B1FFE70F98416F8847FFE7FFE70F9877
:103A0000D0F890000A900F980068806800F040009D
:103A1000402806D0FFE79DF8280010F0280F42D07C
:103A2000FFE70F9805F076FC0F9800688068400665
:103A3000002833D5FFE7FFE7FFE70F98006850E85D
:103A4000020F20F040000990FFE709990F980268E3
:103A500042E8021008B12FF011C0FFE70F98D0F82C
:103A60008000B0B1FFE70F98D0F8801049F2E51060
:103A7000C3F21840C8660F98D0F88000FDF77AFCB2
:103A800030B1FFE70F98D0F88000C16E8847FFE79C
:103A900003E00F98FFF7CAFEFFE703E00F98FFF778
:103AA000C5FEFFE707E00F98FFF7C0FE0F99002063
:103AB000C1F89000FFE7FFE781E10F98C06E012891
:103AC00040F01E81FFE79DF83800C006002840F155
:103AD0001781FFE79DF83400C006002840F11081EF
:103AE000FFE70F980168102008620F98006880684F
:103AF0004006002840F1A280FFE70F98D0F8800030
:103B00000068806CADF82200BDF8220000287AD051
:103B1000FFE7BDF822000F99B1F85C10884272DA15
:103B2000FFE7BDF822000F99A1F85E000F98D0F8CA
:103B30008000006D812859D0FFE7FFE7FFE70F986D
:103B4000006850E8000F20F480700790FFE70799A5
:103B50000F98026842E8001008B12FF011C0FFE78B
:103B6000FFE7FFE70F98006850E8020F20F0010020
:103B70000690FFE706990F98026842E8021008B124
:103B80002FF011C0FFE7FFE7FFE70F98006850E84C
:103B9000020F20F040000590FFE705990F9802689A
:103BA00042E8021008B12FF011C0FFE70F99202062
:103BB000C1F88C000F990020C866FFE7FFE70F9857
:103BC000006850E8000F20F010000490FFE704990F
:103BD0000F98026842E8001008B12FF011C0FFE70B
:103BE0000F98D0F88000FDF739FBFFE70F9902200E
:103BF00008670F98B0F85C10B0F85E20891A89B297
:103C0000FFF7C4FD19E0BDF822000F99B1F85C1070
:103C1000884211D1FFE70F98D0F88000006D81280D
:103C200009D1FFE70F99022008670F98B0F85C10E0
:103C3000FFF7ACFDFFE7FFE7FFE7C0E00F99B1F842
:103C40005C00B1F85E10401AADF80E000F98B0F8A5
:103C50005E00002853D0FFE7BDF80E0000284ED0CC
:103C6000FFE7FFE7FFE70F98006850E8000F20F438
:103C700090700290FFE702990F98026842E80010E6
:103C800008B12FF011C0FFE7FFE7FFE70F980068CA
:103C900050E8020F4FF6FE71CEF6FF71084001901A
:103CA000FFE701990F98026842E8021008B12FF06F
:103CB00013C8FFE70F992020C1F88C000F9900204E
:103CC000C8660F994867FFE7FFE70F98006850E85C
:103CD000000F20F010000090FFE700990F98026895
:103CE00042E8001008B12FF011C0FFE70F99022041
:103CF00008670F98BDF80E10FFF748FDFFE75EE07C
:103D00009DF83A00C00600280FD5FFE79DF8320065
:103D10004006002809D5FFE70F9801684FF480108E
:103D200008620F98FFF740FD49E09DF83800000653
:103D3000002815D5FFE79DF834000006002806D4BA
:103D4000FFE79DF832000006002809D5FFE70F982D
:103D5000806F20B1FFE70F98816F8847FFE72EE063
:103D60009DF83800400600280AD5FFE79DF834008A
:103D70004006002804D5FFE70F9805F01BFB1EE066
:103D80009DF83A00000600280AD5FFE79DF83700A5
:103D90004006002804D5FFE70F98FFF701FD0EE06D
:103DA0009DF83B00C00750B1FFE79DF837000006C3
:103DB000002804D5FFE70F98FFF7EEFCFFE710B0EF
:103DC00080BD000080B582B00090009820B9FFE768
:103DD00001208DF8070046E00098806908B1FFE7F0
:103DE00000E0FFE70098D0F8880040B9FFE70099AD
:103DF000002081F88400009800F03EF8FFE7009969
:103E00002420C1F8880000980168086820F00100AB
:103E100008600098806A20B1FFE7009805F09AF8E2
:103E2000FFE7009805F07AFB012804D1FFE70120A5
:103E30008DF8070017E000980168486820F490406A
:103E4000486000980168886820F02A00886000981F
:103E50000168086840F001000860009805F01EF94C
:103E60008DF80700FFE79DF8070002B080BD000055
:103E700081B0009001B0704781B0009001B07047F0
:103E800080B586B004900391ADF80A20BDF80A0011
:103E9000ADF806000498D0F88800202840F0BA80D9
:103EA000FFE7039820B1FFE7BDF80A0020B9FFE75C
:103EB00001208DF81700B1E0039804990865BDF85A
:103EC0000A000499A1F85400BDF80A000499A1F869
:103ED000560004990020C1F8900004992120C1F8EF
:103EE00088000498C06F002879D0FFE70498C16F5C
:103EF00049F28520C3F2184008660498C16F49F260
:103F0000FD20C3F2184048660498C16F49F20520AD
:103F1000C3F2184088660498C16F0020C8660498F0
:103F20008068B0F5805F0AD1FFE70498006930B976
:103F3000FFE7BDF80A004000ADF80600FFE704986F
:103F4000C06F90F85000000600282BD5FFE70498BA
:103F5000C06F406F08B3FFE70498C06F406F006800
:103F6000D8B1FFE7BDF806000499C96F496F096829
:103F700088600499086DC96F496F0968C860049921
:103F80000868C96F2830496F096808610498C06FD4
:103F9000FDF7C8F88DF8090003E001208DF809004D
:103FA000FFE70BE004980268016DC06F2832BDF88E
:103FB0000630FDF709FA8DF80900FFE79DF80900C2
:103FC00060B1FFE704991020C1F890000499202007
:103FD000C1F8880001208DF817001FE0FFE7049862
:103FE000016840200862FFE7FFE70498006850E896
:103FF000020F40F080000090FFE7009904980268EB
:1040000042E8021008B12FF011C0FFE700208DF840
:10401000170003E002208DF81700FFE79DF8170056
:1040200006B080BD81B0009001B0704781B00090B3
:1040300001B0704782B00190019848F65C21C5F24A
:104040000261086048F25C20C5F2026000680090DE
:10405000009802B07047000082B00190019848F6C5
:104060005C21C5F20261086048F25C20C5F2026082
:1040700000680090009802B07047000082B0019084
:10408000019848F65C21C5F20261086048F25C20A4
:10409000C5F2026000680090009802B0704700000E
:1040A00082B00190019848F66C21C5F20261086067
:1040B00048F26C20C5F2026000680090009802B0DF
:1040C0007047000048F24820C5F202600068C0F363
:1040D0008010704781B0009048F24410C5F2026031
:1040E000006800F0700001B07047000048F2441012
:1040F000C5F20260006880B2000A704781B000908B
:1041000048F24410C5F20260006800F0070001B0F8
:104110007047000048F22400C5F20260006800F415
:10412000E000704748F22400C5F20260006800F029
:104130000700704748F22400C5F20260006800F0F2
:104140007000704748F22400C5F20260006800F475
:10415000E040704748F22400C5F20260006800F4B5
:10416000E020704781B0009048F25C10C5F2026018
:10417000006800F0070001B07047000082B00190B5
:104180009DF8040048F24411C5F202610844009011
:10419000019800990968019A130EC2F30422934012
:1041A0001940D14040EA014002B0704748F2200077
:1041B000C5F20260006800F44010704781B00090C2
:1041C00048F24410C5F20260006800F4401001B0EB
:1041D0007047000048F24810C5F20260006800F025
:1041E000F000704781B0009048F24810C5F20260BC
:1041F000006800F4405001B07047000081B00090AA
:1042000048F24810C5F20260006800F0030001B0F7
:104210007047000081B0009048F24C10C5F2026077
:10422000006800F0030001B07047000081B000900A
:1042300048F24C10C5F20260006800F0300001B096
:104240007047000080B582B001900198FFF796FF9B
:1042500002B080BD80B582B001900198FFF78EFF5B
:1042600002B080BD80B582B001900198FFF786FF53
:1042700002B080BD81B0009048F27810C5F20260B3
:10428000006800F4E06001B07047000081B0009069
:1042900048F25010C5F20260006800F0407001B0B2
:1042A0007047000081B0009048F25410C5F20260DF
:1042B000006800F4E02001B07047000081B0009079
:1042C00048F25C10C5F20260006800F0300001B0F6
:1042D0007047000048F25C10C5F20260006800F40C
:1042E0004070704780B582B001900198FFF746FF9B
:1042F00002B080BD80B582B001900198FFF73EFF0B
:1043000002B080BD81B0009048F26410C5F2026036
:10431000006800F0070001B07047000080B582B06F
:1043200001900198FFF72AFF02B080BD48F22000FB
:10433000C5F20260006800F04050704748F2240067
:10434000C5F202600068C0F30160704780B582B0BA
:1043500001900198FFF712FF02B080BD80B582B0D6
:1043600001900198FFF70AFF02B080BD80B582B0CE
:1043700001900198FFF702FF02B080BD80B582B0C6
:1043800001900198FFF7FAFE02B080BD48F20400E8
:10439000C5F202600068C0F30010704748F20400E4
:1043A000C5F202600068C0F30010704748F2540084
:1043B000C5F202600068C0F38010704749F2000146
:1043C000C5F20261082008607047000048F600014D
:1043D000C5F20261082008607047000048F24800FA
:1043E000C5F20260006800F4C070704748F24800EF
:1043F000C5F20260006800F4C070704748F2040023
:10440000C5F202600068C0F3C000704748F20400C3
:10441000C5F202600068C0F3C000704781B0009030
:1044200048F24801C5F20261086820F4FE00009AD3
:1044300040EA0240086001B07047000081B000907F
:1044400048F24801C5F20261086820F4C070009A81
:104450001043086001B0704748F2E800C5F20260FE
:10446000006800F47F01012000EB1140704700005C
:1044700048F2E800C5F20260006800F04050704762
:1044800048F24020C5F202600068C0F34020704747
:1044900048F2EC00C5F20260006800F0405070473E
:1044A00048F2F000C5F20260006800F47F010120CC
:1044B00000EB11407047000048F2F000C5F20260C6
:1044C000006800F04050704748F24020C5F202609A
:1044D0000068C0F3C020704748F2F400C5F20260E3
:1044E000006800F47F01012000EB114070470000DC
:1044F00048F2F400C5F20260006800F040507047D6
:1045000048F24020C5F202600068C0F300307047F6
:1045100048F2F800C5F20260006800F47F01012053
:1045200000EB11407047000048F2F800C5F202604D
:10453000006800F04050704748F24020C5F2026029
:104540000068C0F34030704748F2FC00C5F20260DA
:10455000006800F47F01012000EB1140704700006B
:1045600048F2FC00C5F20260006800F0405070475D
:1045700048F24020C5F202600068C0F38030704706
:1045800048F20010C5F20260006800F47F010120CB
:1045900000EB11407047000048F20010C5F20260C5
:1045A000006800F04050704748F24020C5F20260B9
:1045B000006880B2C00B704748F20410C5F2026078
:1045C000006800F47F01012000EB114070470000FB
:1045D00048F20410C5F20260006800F040507047D5
:1045E00048F24020C5F202600068C0F30040704706
:1045F00048F20810C5F20260006800F47F01012053
:1046000000EB11407047000048F20810C5F202604C
:10461000006800F04050704748F24020C5F2026048
:104620000068C0F34040704748F20C10C5F20260C9
:10463000006800F47F01012000EB1140704700008A
:1046400048F20C10C5F20260006800F0405070475C
:1046500048F24020C5F202600068C0F38040704715
:1046600048F64021C5F20261012008607047000051
:1046700048F2C400C5F20260006800F47F01012026
:1046800000EB11407047000048F2C400C5F2026020
:10469000006800F04050704748F21010C5F2026008
:1046A000006800F47F01012000EB1140704700001A
:1046B00048F21010C5F20260006800F040507047E8
:1046C00048F24020C5F202600068C0F3C040704765
:1046D00048F2C800C5F20260006800F47F010120C2
:1046E00000EB11407047000048F2C800C5F20260BC
:1046F000006800F04050704748F2CC00C5F20260FC
:10470000006800F47F01012000EB114070470000B9
:1047100048F2CC00C5F20260006800F040507047DB
:1047200048F24020C5F202600068C0F38000704784
:1047300048F2D000C5F20260006800F47F01012059
:1047400000EB11407047000048F2D000C5F2026053
:10475000006800F04050704748F24020C5F2026007
:104760000068C0F3C000704748F2D400C5F2026090
:10477000006800F47F01012000EB11407047000049
:1047800048F2D400C5F20260006800F04050704763
:1047900048F24020C5F202600068C0F30010704784
:1047A00048F2D800C5F20260006800F0405070473F
:1047B00048F2DC00C5F20260006800F47F010120CD
:1047C00000EB11407047000048F2DC00C5F20260C7
:1047D000006800F04050704748F24020C5F2026087
:1047E0000068C0F38010704748F2E000C5F2026034
:1047F000006800F47F01012000EB114070470000C9
:1048000048F2E000C5F20260006800F040507047D6
:1048100048F24020C5F202600068C0B2C00970478B
:1048200048F2E400C5F20260006800F47F01012054
:1048300000EB11407047000048F2E400C5F202604E
:10484000006800F04050704748F24020C5F2026016
:104850000068C0F30020704748F20400C5F202600F
:104860000068C0F34000704748F20400C5F20260DF
:104870000068C0F34000704749F20001C5F20261D0
:10488000012008607047000048F60001C5F202618F
:10489000012008607047000048F20400C5F2026081
:1048A000006800F00100704748F20400C5F20260A1
:1048B000006800F00100704749F20001C5F2026192
:1048C000042008607047000048F60001C5F202614C
:1048D000042008607047000048F24400C5F20260FE
:1048E000006800F40070704748F20400C5F20260EE
:1048F0000068C0F38000704748F20400C5F202600F
:104900000068C0F38000704781B0009048F2440115
:10491000C5F20261086820F4F810009A40EA0240EB
:10492000086001B07047000081B0009048F2440177
:10493000C5F20261086820F40070009A1043086014
:1049400001B0704748F28800C5F202600068C0F309
:104950008070704748F28400C5F20260006820F061
:104960007F40704748F28000C5F202600068C0F3E3
:104970000550704748F28000C5F202600068C0F33D
:104980000B20704748F28800C5F202600068C0F34F
:10499000C260704748F28800C5F202600068C0F348
:1049A0000260704748F28000C5F20260006800F0C3
:1049B000E040704748F28000C5F20260006800F0F5
:1049C000E040704748F28000C5F202600068C0F322
:1049D000C060704748F28000C5F202600068C0F312
:1049E000C060704748F20400C5F202600068C0F37E
:1049F0000020704748F20400C5F202600068C0F36E
:104A00000020704748F29800C5F202600068C0F3C9
:104A10008070704748F29400C5F20260006820F090
:104A20007F40704748F29000C5F202600068C0F312
:104A30000550704748F29000C5F202600068C0F36C
:104A40000B20704748F29800C5F202600068C0F37E
:104A5000C260704748F29800C5F202600068C0F377
:104A60000260704748F29000C5F20260006800F0F2
:104A7000E040704748F29000C5F20260006800F024
:104A8000E040704748F29000C5F202600068C0F351
:104A9000C060704748F29000C5F202600068C0F341
:104AA000C060704748F20400C5F202600068C0F3BD
:104AB0004020704748F20400C5F202600068C0F36D
:104AC0004020704748F2A800C5F202600068C0F3B9
:104AD0008070704748F2A400C5F20260006820F0C0
:104AE0007F40704748F2A000C5F202600068C0F342
:104AF0000550704748F2A000C5F202600068C0F39C
:104B00000B20704748F2A800C5F202600068C0F3AD
:104B1000C260704748F2A800C5F202600068C0F3A6
:104B20000260704748F2A000C5F20260006800F021
:104B3000E040704748F2A000C5F20260006800F053
:104B4000E040704748F2A000C5F202600068C0F380
:104B5000C060704748F2A000C5F202600068C0F370
:104B6000C060704748F20400C5F202600068C0F3FC
:104B70008020704748F20400C5F202600068C0F36C
:104B80008020704748F2B800C5F202600068C0F3A8
:104B90008070704748F2B400C5F20260006820F0EF
:104BA0007F40704748F2B000C5F202600068C0F371
:104BB0000550704748F2B000C5F202600068C0F3CB
:104BC0000B20704748F2B800C5F202600068C0F3DD
:104BD000C260704748F2B800C5F202600068C0F3D6
:104BE0000260704748F2B000C5F20260006800F051
:104BF000E040704748F2B000C5F20260006800F083
:104C0000E040704748F2B000C5F202600068C0F3AF
:104C1000C060704748F2B000C5F202600068C0F39F
:104C2000C060704748F20400C5F202600068C0F33B
:104C3000C020704748F20400C5F202600068C0F36B
:104C4000C020704780B58CB0002005900B900A9072
:104C500009900890079004200390FFF7FDF9802049
:104C6000FFF7FAF902200190FFF7F6F91020FFF79D
:104C7000F3F90120FFF7F0F9019A039805990792DB
:104C800012220292089209910A910B9040F60000BC
:104C9000C5F2026007A90691FCF7ACFD029B0398E0
:104CA000059A06994FF4007CCDF81CC00893099230
:104CB0000A920B9041F60040C5F20260FCF79AFDA3
:104CC000029B0398059A06994FF4406CCDF810C0EA
:104CD000CDF81CC0089309920A920B9040F2004054
:104CE000C5F20260FCF786FD049A059806990792C2
:104CF0000322089209900020C5F20260FCF77AFDB9
:104D00000CB080BD80B582B00190009140F20000EF
:104D1000C3F21C400068019908600098006801997E
:104D2000486001990C204861009840890199086108
:104D30000098406801998860009800890199C860CE
:104D4000009880890199886101994FF40040C861F9
:104D50000199002048620198FFF734F802B080BD45
:104D600088B0079006910592079800F0070004901C
:104D70000498C0F10700052803D3FFE70420019041
:104D800004E00498C0F107000190FFE70198039048
:104D900004980430062803D8FFE70020009003E0C1
:104DA000049803380090FFE7009802900698039952
:104DB000012202FA01F101390840029B984005994D
:104DC0009A40013A1140084308B0704785B0DDF8B9
:104DD00018C0DDF814C004900391029201939DED78
:104DE000040AB8EE400A9DED021AB8EE411A9DED94
:104DF000012AB8EE422A9FED163A22EE032A31EE3E
:104E0000021A20EE010A9DED031AB8EE411A80EE57
:104E1000010A8DED000A9DED000A9DED051AB8EE20
:104E2000411A80EE010A8DED000A9DED000A9DED0C
:104E3000061AB8EE411A80EE010A8DED000A9DEDCA
:104E4000000ABCEEC00A10EE100A05B0704700BFA1
:104E50000000803380B588B0079000200690079846
:104E6000FFF738F90146049100B3FFE704981028D2
:104E700022D0FFE70498202823D0FFE704983028A9
:104E800063D0FFE70498402800F0B280FFE7049861
:104E9000502800F09E80FFE70498602800F0B3805F
:104EA000FFE70498702800F0B480BCE0FDF7C4FF71
:104EB00000F018FE0690B7E0072000F097F9069082
:104EC000B2E0FFF789FC00283ED0FFE7FFF770FC57
:104ED0000590FFF779FC0146039178B1FFE703984D
:104EE000B0F1805F13D0FFE70398B0F1005F17D0F7
:104EF000FFE70398B0F1405F1BD023E0FCF796FF7B
:104F0000069006980599B0FBF1F006901BE0FCF7BF
:104F1000D9FF069006980599B0FBF1F0069012E0D3
:104F2000FDF71CF8069006980599B0FBF1F0069085
:104F300009E0FDF75FF8069006980599B0FBF1F0DF
:104F4000069000E0FFE7FFE76EE0FFF761FC002856
:104F50003ED0FFE7FFF748FC0590FFF751FC014604
:104F6000029178B1FFE70298B0F1805F13D0FFE7BC
:104F70000298B0F1005F17D0FFE70298B0F1405FF0
:104F80001BD023E0FCF752FF069006980599B0FB72
:104F9000F1F006901BE0FCF795FF06900698059946
:104FA000B0FBF1F0069012E0FCF7D8FF06900698EF
:104FB0000599B0FBF1F0069009E0FDF71BF80690AB
:104FC00006980599B0FBF1F0069000E0FFE7FFE7D7
:104FD0002AE0FFF713FA50B1FFE7FFF7FFF9C10925
:104FE00049F20000C0F2D030C8400690FFE71BE055
:104FF000FFF77AFC30B1FFE740F60010C0F23D0049
:105000000690FFE710E048F20000C0F2BB000690F7
:105010000AE0FDF711FF0190FFF790F901460198B2
:10502000C840069000E0FFE706980090FFF75EF8A2
:10503000014600980131B0FBF1F008B080BD0000DE
:1050400080B588B00790002006900798FFF756F8C3
:1050500001460491072800F2C4800499DFE801F0BA
:10506000040A0F53A697B1B7FDF7E6FE00F03AFD2C
:105070000690B7E0072000F0B9F80690B2E0FFF71D
:10508000ABFB00283ED0FFE7FFF792FB0590FFF750
:105090009BFB0146039178B1FFE70398B0F1805F75
:1050A00013D0FFE70398B0F1005F17D0FFE7039834
:1050B000B0F1405F1BD023E0FCF7B8FE06900698E5
:1050C0000599B0FBF1F006901BE0FCF7FBFE0690A3
:1050D00006980599B0FBF1F0069012E0FCF73EFF50
:1050E000069006980599B0FBF1F0069009E0FCF7F0
:1050F00081FF069006980599B0FBF1F0069000E05C
:10510000FFE7FFE76EE0FFF783FB00283ED0FFE7F5
:10511000FFF76AFB0590FFF773FB0146029178B138
:10512000FFE70298B0F1805F13D0FFE70298B0F17B
:10513000005F17D0FFE70298B0F1405F1BD023E07B
:10514000FCF774FE069006980599B0FBF1F0069006
:105150001BE0FCF7B7FE069006980599B0FBF1F04E
:10516000069012E0FCF7FAFE069006980599B0FB4F
:10517000F1F0069009E0FCF73DFF069006980599CE
:10518000B0FBF1F0069000E0FFE7FFE72AE0FFF751
:1051900035F950B1FFE7FFF721F9C10949F20000E5
:1051A000C0F2D030C8400690FFE71BE0FFF79CFB41
:1051B00030B1FFE740F60010C0F23D000690FFE777
:1051C00010E048F20000C0F2BB0006900AE0FDF7D4
:1051D00033FE0190FFF7B2F801460198C8400690EF
:1051E00000E0FFE7069808B080BD000080B58AB0F7
:1051F000099000200890FEF765FF012840F08F819C
:10520000FFE70998FEF7AEFF01460691072800F276
:1052100084810699DFE811F0080017002200F900E8
:105220002D007100B5003D01FFF7E8F850B1FFE730
:10523000FFF7D4F8C10949F20000C0F2D030C840ED
:105240000890FFE76AE1FFF74FFB30B1FFE740F658
:105250000010C0F23D000890FFE75FE1FFF796F80D
:1052600030B1FFE743F20060C0F26E100890FFE734
:1052700054E1FFF78DFA00283ED0FFE7FFF774FAFC
:105280000790FFF77DFA0146059178B1FFE7059891
:10529000B0F1805F13D0FFE70598B0F1005F17D041
:1052A000FFE70598B0F1405F1BD023E0FCF7BEFD9F
:1052B000089008980799B0FBF1F008901BE0FCF704
:1052C00001FE089008980799B0FBF1F0089012E0F1
:1052D000FCF744FE089008980799B0FBF1F008909D
:1052E00009E0FCF787FE089008980799B0FBF1F0F9
:1052F000089000E0FFE7FFE710E1FFF7C1F80028A2
:105300003ED0FFE7FFF7A8F80790FFF7B1F8014696
:10531000049178B1FFE70498B0F1805F13D0FFE704
:105320000498B0F1005F17D0FFE70498B0F1405F38
:105330001BD023E0FCF77AFD089008980799B0FB92
:10534000F1F008901BE0FCF7BDFD08900898079964
:10535000B0FBF1F0089012E0FCF700FE089008980E
:105360000799B0FBF1F0089009E0FCF743FE0890C4
:1053700008980799B0FBF1F0089000E0FFE7FFE71D
:10538000CCE0FFF7F5F800283ED0FFE7FFF7DCF8A8
:105390000790FFF7E5F80146039178B1FFE703981E
:1053A000B0F1805F13D0FFE70398B0F1005F17D032
:1053B000FFE70398B0F1405F1BD023E0FCF736FD18
:1053C000089008980799B0FBF1F008901BE0FCF7F3
:1053D00079FD089008980799B0FBF1F0089012E069
:1053E000FCF7BCFD089008980799B0FBF1F0089015
:1053F00009E0FCF7FFFD089008980799B0FBF1F071
:10540000089000E0FFE7FFE788E0FFF721F90028B8
:105410003ED0FFE7FFF708F90790FFF711F90146C3
:10542000029178B1FFE70298B0F1805F13D0FFE7F7
:105430000298B0F1005F17D0FFE70298B0F1405F2B
:105440001BD023E0FCF7F2FC089008980799B0FB0A
:10545000F1F008901BE0FCF735FD089008980799DB
:10546000B0FBF1F0089012E0FCF778FD0890089886
:105470000799B0FBF1F0089009E0FCF7BBFD08903C
:1054800008980799B0FBF1F0089000E0FFE7FFE70C
:1054900044E0FFF715F900283ED0FFE7FFF7FCF8DE
:1054A0000790FFF705F90146019178B1FFE70198F0
:1054B000B0F1805F13D0FFE70198B0F1005F17D023
:1054C000FFE70198B0F1405F1BD023E0FCF7AEFC92
:1054D000089008980799B0FBF1F008901BE0FCF7E2
:1054E000F1FC089008980799B0FBF1F0089012E0E1
:1054F000FCF734FD089008980799B0FBF1F008908C
:1055000009E0FCF777FD089008980799B0FBF1F0E7
:10551000089000E0FFE7FFE700E0FFE7FFE70898FB
:105520000AB080BD80B584B000200390FFF774F806
:1055300000283ED0FFE7FFF75BF80290FFF764F822
:105540000146019178B1FFE70198B0F1805F13D077
:10555000FFE70198B0F1005F17D0FFE70198B0F1C5
:10556000405F1BD023E0FCF761FC03900398029995
:10557000B0FBF1F003901BE0FCF7A4FC0390039850
:105580000299B0FBF1F0039012E0FCF7E7FC039006
:1055900003980299B0FBF1F0039009E0FCF72AFDB3
:1055A000039003980299B0FBF1F0039000E0FFE74D
:1055B000FFE7039804B080BD80B586B00590002059
:1055C00004900598FEF7FAFD0146029178B1FFE7D5
:1055D0000298B0F5801F12D0FFE70298B0F5001FC7
:1055E00012D0FFE70298B0F5401F51D05FE0FDF701
:1055F00023FC00F077FA01F051FA049058E00720FC
:10560000FFF7F4FD049053E0FEF7EAFF00283ED0D8
:10561000FFE7FEF7D1FF0390FEF7DAFF01460191A5
:1056200078B1FFE70198B0F1805F13D0FFE70198F0
:10563000B0F1005F17D0FFE70198B0F1405F1BD0D9
:1056400023E0FCF7F3FB049004980399B0FBF1F01E
:1056500004901BE0FCF736FC049004980399B0FB1F
:10566000F1F0049012E0FCF779FC0490049803999F
:10567000B0FBF1F0049009E0FCF7BCFC0490049846
:105680000399B0FBF1F0049000E0FFE7FFE70FE0C3
:10569000FEF7B4FE50B1FFE7FEF7A0FEC10949F2E4
:1056A0000000C0F2D030C8400490FFE700E0FFE700
:1056B000049806B080BD000080B586B0059000203B
:1056C00004900598FEF78EFD0146029178B1FFE740
:1056D0000298B0F5805F10D0FFE70298B0F5005F48
:1056E00010D0FFE70298B0F5405F4FD059E0FDF7CA
:1056F000A3FB00F0F7F9049054E00720FFF776FDD4
:1057000004904FE0FEF7E0FE00283ED0FFE7FEF7F2
:10571000C7FE0390FEF7D0FE0146019178B1FFE786
:105720000198B0F1805F13D0FFE70198B0F1005FFE
:1057300017D0FFE70198B0F1405F1BD023E0FCF7E2
:1057400075FB049004980399B0FBF1F004901BE002
:10575000FCF7B8FB049004980399B0FBF1F00490B7
:1057600012E0FCF7FBFB049004980399B0FBF1F006
:10577000049009E0FCF73EFC049004980399B0FB08
:10578000F1F0049000E0FFE7FFE70BE0FEF7FEFD1D
:1057900030B1FFE743F20060C0F26E100490FFE703
:1057A00000E0FFE7049806B080BD000080B586B039
:1057B0000590002004900598FEF720FD0146029117
:1057C00003285ED80299DFE801F002080D51FDF7C9
:1057D00033FB00F087F9049054E00720FFF706FD43
:1057E00004904FE0FEF78CFE00283ED0FFE7FEF766
:1057F00073FE0390FEF77CFE0146019178B1FFE74E
:105800000198B0F1805F13D0FFE70198B0F1005F1D
:1058100017D0FFE70198B0F1405F1BD023E0FCF701
:1058200005FB049004980399B0FBF1F004901BE091
:10583000FCF748FB049004980399B0FBF1F0049046
:1058400012E0FCF78BFB049004980399B0FBF1F095
:10585000049009E0FCF7CEFB049004980399B0FB98
:10586000F1F0049000E0FFE7FFE70BE0FEF78EFDAC
:1058700030B1FFE743F20060C0F26E100490FFE722
:1058800000E0FFE704980090FEF7A4FC02460098B1
:10589000012101EB1211B0FBF1F006B080BD000058
:1058A00080B586B00590002004900598FEF7B2FC04
:1058B00001460291032860D80299DFE801F0020A4C
:1058C0000F53FDF7B9FA00F00DF901F0BDF804909F
:1058D00054E00720FFF78AFC04904FE0FEF7B8FE83
:1058E00000283ED0FFE7FEF79FFE0390FEF7A8FEDC
:1058F0000146019178B1FFE70198B0F1805F13D0C4
:10590000FFE70198B0F1005F17D0FFE70198B0F111
:10591000405F1BD023E0FCF789FA049004980399B8
:10592000B0FBF1F004901BE0FCF7CCFA0490049873
:105930000399B0FBF1F0049012E0FCF70FFB049028
:1059400004980399B0FBF1F0049009E0FCF752FBD6
:10595000049004980399B0FBF1F0049000E0FFE795
:10596000FFE70BE0FEF712FD30B1FFE743F2006006
:10597000C0F26E100490FFE700E0FFE7049806B065
:1059800080BD000080B586B0059000200490059889
:10599000FEF74CFC0146029160B1FFE70298102827
:1059A0000ED0FFE7029820280FD0FFE7029830289A
:1059B0004FD092E0FDF740FA00F094F804908DE0AB
:1059C0000720FFF713FC049088E0FEF7A9FE0028EB
:1059D0003ED0FFE7FEF790FE0390FEF799FE0146EA
:1059E000019178B1FFE70198B0F1805F13D0FFE734
:1059F0000198B0F1005F17D0FFE70198B0F1405F68
:105A00001BD023E0FCF712FA049004980399B0FB32
:105A1000F1F004901BE0FCF755FA04900498039908
:105A2000B0FBF1F0049012E0FCF798FA04900498AF
:105A30000399B0FBF1F0049009E0FCF7DBFA049065
:105A400004980399B0FBF1F0049000E0FFE7FFE752
:105A500044E0FEF781FE00283ED0FFE7FEF768FE37
:105A60000390FEF771FE0146009178B1FFE70098C0
:105A7000B0F1805F13D0FFE70098B0F1005F17D05E
:105A8000FFE70098B0F1405F1BD023E0FCF7CEF9B0
:105A9000049004980399B0FBF1F004901BE0FCF72C
:105AA00011FA049004980399B0FBF1F0049012E00D
:105AB000FCF754FA049004980399B0FBF1F00490B9
:105AC00009E0FCF797FA049004980399B0FBF1F011
:105AD000049000E0FFE7FFE700E0FFE7049806B06E
:105AE00080BD000080B582B0019001980090FEF763
:105AF00011FB01460098C1F30251C84002B080BDBD
:105B000080B586B00590002004900598FEF79AFBBA
:105B1000014602910C21C0F20071884200F0C98058
:105B2000FFE7029840F20C41C0F20071884200F099
:105B3000C080FFE7029840F60C01C0F20071884275
:105B400000F0B780FFE7029840F60C41C0F2007108
:105B5000884200F0AE80FFE702980C21C0F201718C
:105B6000884200F0AE80FFE7029840F20C41C0F29C
:105B70000171884200F0A580FFE7029840F60C0111
:105B8000C0F20171884200F09C80FFE7029840F665
:105B90000C41C0F20171884200F09380FFE7029847
:105BA0000C21C0F20271884200F09080FFE7029859
:105BB00040F20C41C0F20271884200F08780FFE79A
:105BC000029840F60C01C0F2027188427ED0FFE7D5
:105BD000029840F60C41C0F20271884276D0FFE78D
:105BE00002980C21C0F20371884200F0B380FFE7F5
:105BF000029840F20C41C0F20371884200F0AA8082
:105C0000FFE7029840F60C01C0F20371884200F0F1
:105C1000A180FFE7029840F60C41C0F20371884270
:105C200000F09880FFE702980C21C0F204718842CE
:105C300000F0E380FFE7029840F20C41C0F20471EB
:105C4000884200F0DA80FFE7029840F60C01C0F2CB
:105C50000471884200F0D180FFE7029840F60C41C1
:105C6000C0F20471884200F0C880FFE702980C215E
:105C7000C0F20571884200F0B180FFE7029840F25F
:105C80000C41C0F20571884200F0A880FFE702983D
:105C900040F60C01C0F20571884200F09F80FFE7DA
:105CA000029840F60C41C0F20571884200F09680DF
:105CB000AEE0FDF7C1F8FFF715FF00F0C5FE049058
:105CC000A7E00720FFF792FA0490A2E0FEF7D8FBC6
:105CD00000283ED0FFE7FEF7BFFB0390FEF7C8FBAE
:105CE0000146019178B1FFE70198B0F1805F13D0D0
:105CF000FFE70198B0F1005F17D0FFE70198B0F11E
:105D0000405F1BD023E0FCF791F8049004980399BE
:105D1000B0FBF1F004901BE0FCF7D4F80490049879
:105D20000399B0FBF1F0049012E0FCF717F904902E
:105D300004980399B0FBF1F0049009E0FCF75AF9DC
:105D4000049004980399B0FBF1F0049000E0FFE7A1
:105D5000FFE75EE0FEF70CFC00283ED0FFE7FEF711
:105D6000F3FB0390FEF7FCFB0146009178B1FFE7DF
:105D70000098B0F1805F13D0FFE70098B0F1005FAA
:105D800017D0FFE70098B0F1405F1BD023E0FCF78D
:105D90004DF8049004980399B0FBF1F004901BE0D7
:105DA000FCF790F8049004980399B0FBF1F004908C
:105DB00012E0FCF7D3F8049004980399B0FBF1F0DB
:105DC000049009E0FCF716F9049004980399B0FBDD
:105DD000F1F0049000E0FFE7FFE71AE0FEF70EFBAA
:105DE00050B1FFE7FEF7FAFAC10949F20000C0F22C
:105DF000D030C8400490FFE70BE0FEF775FD30B1EE
:105E0000FFE740F60010C0F23D000490FFE700E01D
:105E1000FFE7049806B080BD80B586B005900020ED
:105E200004900598FEF716FA0146029141F20C0122
:105E3000C0F2007188425CD0FFE7029841F20C4149
:105E4000C0F20071884254D0FFE7029841F20C0181
:105E5000C0F20171884254D0FFE7029841F20C4130
:105E6000C0F2017188424CD0FFE7029841F20C0168
:105E7000C0F20271884249D0FFE7029841F20C411A
:105E8000C0F20271884241D0FFE7029841F20C0152
:105E9000C0F2037188427DD0FFE7029841F20C41C5
:105EA000C0F20371884275D0FFE7029841F20C01FD
:105EB000C0F20471884200F0C080FFE7029841F20E
:105EC0000C41C0F20471884200F0B780FFE70298ED
:105ED00041F20C01C0F20571884200F09F80FFE79B
